:100000000C942E030C9446100C941F100C94560361
:100010000C9456030C9456030C9456030C945603FC
:100020000C9456030C9456030C9456030C945603EC
:100030000C9456030C9456030C9456030C945603DC
:100040000C94D50F0C9456030C94410C0C945F1730
:100050000C9456030C9456030C9456030C945603BC
:100060000C9456030C945603A204F4042F05720555
:100070000F06D50633075607C607B8133114FB130E
:10008000DE133A153A15AD133A15AD133A15AD1303
:10009000AD13AD133A15AD13AD1308000000BE92B9
:1000A0002449123EABAAAA2ABECDCCCC4C3E0000BD
:1000B0000080BEABAAAAAA3E00000000BF0000005C
:1000C000803F0000000000084178D3BB4387D11374
:1000D0003D190E3CC3BD4282AD2B3E68EC8276BE1C
:1000E000D98FE1A93E4C80EFFFBE01C4FF7F3F00E6
:1000F00000000000FFFFFFFFFFFFFFFFFFFFFFFF0C
:10010000FFFFFFFFFFFFFFFFFFFFFFFFFFFFFFFFFF
:10011000FFFFFFFFFFFFFFFFFFFFFFFFFFFFFFFFEF
:10012000FFFFFFFFFFFFFFFFFFFFFFFFFFFFFFFFDF
:10013000FFFFFFFFFFFFFFFFFFFFFFFFFFFFFFFFCF
:10014000FFFFFFFFFFFFFFFFFFFFFFFFFFFFFFFFBF
:10015000FFFFFFFFFFFFFFFFFFFFFFFFFFFFFFFFAF
:10016000FFFFFFFFFFFFFFFFFFFFFFFFFFFFFFFF9F
:10017000FFFFFFFF00000000000000000000000083
:10018000000000000000000000000000000000006F
:10019000000000000000000000000000000000005F
:1001A000000000000000000000000000000000004F
:1001B000000000000000000000000000000000003F
:1001C000000000000000000000000000000000002F
:1001D000000000000000000000000000000000001F
:1001E000000000000000000000000000000000000F
:1001F0000000000080828486888A8C8E909294967B
:10020000989A9C9EA0A2A4A6A8AAACAEB0B2B4B67E
:10021000B8BABCBEC0C2C4C6C8CACCCED0D2D4D66E
:10022000D8DADCDEE0E2E4E6E8EAECEEF0F2F4F65E
:10023000F8FAFCFEFFFDFBF9F7F5F3F1EFEDEBE962
:10024000E7E5E3E1DFDDDBD9D7D5D3D1CFCDCBC92E
:10025000C7C5C3C1BFBDBBB9B7B5B3B1AFADABA91E
:10026000A7A5A3A19F9D9B99979593918F8D8B890E
:10027000878583817F7D7B79777573716F6D6B69FE
:10028000676563615F5D5B59575553514F4D4B49EE
:10029000474543413F3D3B39373533312F2D2B29DE
:1002A000272523211F1D1B19171513110F0D0B09CE
:1002B0000705030100020406080A0C0E10121416AA
:1002C000181A1C1E20222426282A2C2E30323436BE
:1002D000383A3C3E40424446484A4C4E50525456AE
:1002E000585A5C5E60626466686A6C6E707274769E
:1002F000787A7C7E000102030405060708090A0BD0
:100300000C0D0E0F101112131415161718191A1BB5
:100310001C1D1E1F202122232425262728292A2BA5
:100320002C2D2E2F303132333435363738393A3B95
:100330003C3D3E3F404142434445464748494A4B85
:100340004C4D4E4F505152535455565758595A5B75
:100350005C5D5E5F606162636465666768696A6B65
:100360006C6D6E6F707172737475767778797A7B55
:100370007C7D7E7F808182838485868788898A8B45
:100380008C8D8E8F909192939495969798999A9B35
:100390009C9D9E9FA0A1A2A3A4A5A6A7A8A9AAAB25
:1003A000ACADAEAFB0B1B2B3B4B5B6B7B8B9BABB15
:1003B000BCBDBEBFC0C1C2C3C4C5C6C7C8C9CACB05
:1003C000CCCDCECFD0D1D2D3D4D5D6D7D8D9DADBF5
:1003D000DCDDDEDFE0E1E2E3E4E5E6E7E8E9EAEBE5
:1003E000ECEDEEEFF0F1F2F3F4F5F6F7F8F9FAFBD5
:1003F000FCFDFEFFFFFEFDFCFBFAF9F8F7F6F5F455
:10040000F3F2F1F0EFEEEDECEBEAE9E8E7E6E5E434
:10041000E3E2E1E0DFDEDDDCDBDAD9D8D7D6D5D424
:10042000D3D2D1D0CFCECDCCCBCAC9C8C7C6C5C414
:10043000C3C2C1C0BFBEBDBCBBBAB9B8B7B6B5B404
:10044000B3B2B1B0AFAEADACABAAA9A8A7A6A5A4F4
:10045000A3A2A1A09F9E9D9C9B9A999897969594E4
:10046000939291908F8E8D8C8B8A898887868584D4
:10047000838281807F7E7D7C7B7A797877767574C4
:10048000737271706F6E6D6C6B6A696867666564B4
:10049000636261605F5E5D5C5B5A595857565554A4
:1004A000535251504F4E4D4C4B4A49484746454494
:1004B000434241403F3E3D3C3B3A39383736353484
:1004C000333231302F2E2D2C2B2A29282726252474
:1004D000232221201F1E1D1C1B1A19181716151464
:1004E000131211100F0E0D0C0B0A09080706050454
:1004F00003020100FFFFFFFFFEFEFDFDFCFBFBFA18
:10050000F9F8F7F5F4F3F1F0EEEDEBE9E8E6E4E203
:10051000E0DEDBD9D7D5D2D0CDCBC8C6C3C0BDBBFA
:10052000B8B5B2AFACA9A6A3A09D9A9794918E8BB3
:100530008784817E7B7874716E6B6865625F5C59BD
:100540005653504D4A4744423F3C393734322F2DA1
:100550002A282624211F1D1B1917161412110F0EED
:100560000C0B0A080706050404030202010100003F
:100570000000000000000000010102020304050663
:100580000708090A0C0D0E1011131517181A1C1E56
:1005900020232527292C2E303336383B3D40434637
:1005A000494B4E5154575A5D6063666A6D7073765D
:1005B000797C7F808386898C8F9295999C9FA2A558
:1005C000A8ABAEB1B4B6B9BCBFC2C4C7C9CCCFD159
:1005D000D3D6D8DADCDFE1E3E5E7E8EAECEEEFF1E9
:1005E000F2F3F5F6F7F8F9FAFBFCFDFDFEFEFFFF6E
:1005F000FFFFFFFF00000000240027002A0000008A
:100600000000250028002B00000000002300260029
:100610002900040404040404040402020202020285
:100620000303030303030202030102040810204032
:1006300080010204081020010204081020408040BC
:100640000000000800020100000304070000000091
:100650000000000000000000C317851711241FBE12
:10066000CFEFD8E0DEBFCDBF11E0A0E0B1E0ECEB12
:10067000FDE302C005900D92A035B107D9F723E044
:10068000A0E5B1E001C01D92A83DB207E1F713E07B
:10069000CDE2D3E004C02197FE010E94B71ECC3208
:1006A000D107C9F70E94E3180C94D11E0C940000E6
:1006B0009C01269FC001279F900D369F900D11240D
:1006C00097FD4F96E5E095958795EA95E1F740917E
:1006D0002A0150E0E0912D0120E230E0D901A61B73
:1006E000B70BEA9F9001EB9F300D112437FF02C03A
:1006F000215E3F4F65E0359527956A95E1F7280F14
:10070000391F249FC001259F900D349F900D112407
:1007100097FD4F9625E0959587952A95E1F720E27C
:1007200030E0B901641B750BAB016FEF649F900162
:10073000659F300D112437FF02C0215E3F4F95E0C9
:10074000359527959A95E1F7820F08958091530189
:10075000882321F084E592E00C944115089580915E
:100760005301882321F084E592E00C947D150895CF
:1007700080915301882309F44EC0109252011092C7
:1007800051010E94180E6093670170936801809375
:10079000690190936A0180915001882361F080E89B
:1007A000809354018091120190911301A091140142
:1007B000B09115010AC010925401809116019091D8
:1007C0001701A0911801B0911901809355029093DF
:1007D0005602A0935702B09358028091550290910F
:1007E0005602A0915702B0915802809359029093FB
:1007F0005A02A0935B02B0935C020E94180E6093B1
:100800005D0270935E0280935F029093600284E5C4
:1008100092E00C947D1508950F931F9380915101E0
:100820009091520101969093520180935101209131
:1008300053012223E9F14897DCF10E94180E009140
:100840006701109168012091690130916A01DC0112
:10085000CB01801B910BA20BB30B803C964CAD429D
:10086000B105C0F40E94180E009167011091680153
:100870002091690130916A01DC01CB01801B910B51
:10088000A20BB30B8093630190936401A093650165
:10089000B09366010E94180E60936701709368011F
:1008A0008093690190936A01109252011092510154
:1008B0001F910F91089580919801411103C08823E1
:1008C000E9F002C081111AC08BE991E00E947D1508
:1008D00080E29EE4A0E0B0E08093A0019093A101AB
:1008E000A093A201B093A3010E94180E6093A401EB
:1008F0007093A5018093A6019093A7010895CF92CC
:10090000DF92EF92FF92CF93DF93809161019091FC
:1009100062010196893091052CF4909362018093D5
:10092000610104C01092620110926101E0916101C5
:10093000F0916201E930F10508F099C3EC5CFF4FDA
:100940000C94B71E81E00E94FD0DEC018091020124
:10095000909103019C01275F3F4F2C173D072CF01E
:100960000997C817D9070CF082C39E01A3E9BFEF0E
:100970000E94BD1E2FEF33E040E050E00E94791B43
:10098000CA01B90163587F4F8F4F9F4F9B01AC0144
:100990000E94A71E6093220170932301809324017B
:1009A00090932501C0900001D09001010D2C000C06
:1009B000EE08FF086C157D058E059F0551F00E941D
:1009C0006311809122019091230190930101809302
:1009D000000188E190E090930F0180930E01D09385
:1009E0000301C093020143C384E00E94FD0DEC01AA
:1009F00080910401909105019C01275F3F4F2C17C6
:100A00003D072CF00997C817D9070CF030C3CE0169
:100A10000D2E000CAA0BBB0B8C599F4FAF4FBF4F35
:100A2000BC01CD0152E0660F771F881F991F5A95B0
:100A3000D1F728EE33E040E050E00E94791B2530EA
:100A400008F024E020937E0186E190E090930F016E
:100A500080930E01D0930501C093040108C380E088
:100A60000E94FD0DEC0180910601909107019C010F
:100A7000275F3F4F2C173D072CF00997C817D90760
:100A80000CF0F5C225E630E0DE010E94C51E2FEF16
:100A900033E040E050E00E94791BDA01C901019681
:100AA000A11DB11D682F70E080E090E00E94F61C4F
:100AB0000E94AD1D20E030E040E851E40E94051E98
:100AC0000E94C71C613208F060E260932A0184E151
:100AD00090E090930F0180930E01D0930701C09393
:100AE0000601C5C282E00E94FD0DEC0180910A0161
:100AF00090910B019C01275F3F4F2C173D072CF075
:100B00000997C817D9070CF0B2C2CE010D2E000C00
:100B1000AA0BBB0B9C01AD012A563F4F4F4F5F4FB5
:100B2000A5E0B0E00E94981B2AE134E040E050E0EC
:100B30000E94791BDA01C9010196A11DB11D181689
:100B400019061A061B0634F49C0107972CF026E0C0
:100B500030E002C021E030E030932C0120932B01E3
:100B600080910801909109012817390709F44CC0B8
:100B700080917F01811148C023303105E9F05CF498
:100B800021303105A1F02230310561F580E090E09F
:100B9000A0E8BFE31FC025303105C1F094F0263036
:100BA000310501F580E090E0A0E8B0E413C080E0FA
:100BB00090E0A0E0BFE30EC080E090E0A0ECBFE3D7
:100BC00009C080E090E0A0E0B0E404C080E090E0E4
:100BD000A0E4B0E48093260190932701A09328011C
:100BE000B093290160912201709123018091240129
:100BF000909125010E94631180912B0190912C010D
:100C0000909309018093080185E190E090930F0192
:100C100080930E01D0930B01C0930A0128C285E096
:100C20000E94FD0DEC0180910C0190910D019C0141
:100C3000275F3F4F2C173D072CF00997C817D9079E
:100C40000CF015C2C33C21E0D207BCF5CE010D2E3D
:100C5000000CAA0BBB0B9C01AD01225C3140410989
:100C60005109ACE9BFEF0E94A61B2EE33EEF4FEF08
:100C70005FEF0E94791BDA01C9018C599F4FAF4F7A
:100C8000BF4FBC01990F880B990B0E94F81C0E9462
:100C9000AD1D20E030E040E851E40E94051E0E94B6
:100CA000C01C6132710514F060E270E070931D01A8
:100CB00060931C0180E290E045C0C63282E0D80714
:100CC000DCF180E290E090931D0180931C01CE0145
:100CD0000D2E000CAA0BBB0B9C01AD01265232401D
:100CE00041095109ACE9BFEF0E94A61B29ED31E093
:100CF00040E050E00E94791BDA01C9018C599F4FF6
:100D0000AF4FBF4FBC01990F880B990B0E94F81C85
:100D10000E94AD1D20E030E040E851E40E94051E35
:100D20000E94C01C6132710514F060E270E07093A3
:100D30001B0160931A010AC080E290E090931D01AC
:100D400080931C0190931B0180931A0140911C0118
:100D500050911D0120911A0130911B01CA01821B83
:100D6000930B97FF03C0919581959109809355014D
:100D700080919301882371F04032510521F0109247
:100D80001D0110921C012032310521F010921B012F
:100D900010921A018AE190E090930F0180930E0166
:100DA000D0930D01C0930C0162C183E00E94FD0D40
:100DB000EC0180911001909111019C01275F3F4F40
:100DC0002C173D072CF00997C817D9070CF04FC115
:100DD000BE010D2E000C880B990B0E94F81C20E020
:100DE00030EC4FE754E40E944E1C6B017C0120E084
:100DF00030E040E85DE30E94491C87FD11C020E01F
:100E000030E040E75FE3C701B6010E94A81D181655
:100E10006CF4C12CD12C30E7E32E3FE3F32E06C057
:100E2000C12CD12C40E8E42E4DE3F42EC0921E01DB
:100E3000D0921F01E0922001F092210160912201E5
:100E40007091230180912401909125010E946311EA
:100E500089E190E090930F0180930E01D0931101EE
:100E6000C093100104C18091570181110CC086E02C
:100E70000E94FD0C21E0892B09F020E0209356010F
:100E800081E08093570186E00E94FD0C21E0892BD0
:100E900009F420E080915601281709F4E8C081E0A8
:100EA000822780932E0120935601E1C085E00E94A5
:100EB000FD0CC1E0892B09F4C0E080915F01C817E7
:100EC00011F180917F0181111EC0F894C11113C0EE
:100ED00080919701811114C080919601882339F087
:100EE00081E0809398010E94AE101092960181E0FB
:100EF0008093970105C081E080939601109297013D
:100F00007894C0935F0185E00E94FD0C8091970169
:100F1000882361F180917F01811128C081E00E94C6
:100F2000FD0C892B09F08AC080916001811186C077
:100F300081E08093600180EC91E00E947D1580E467
:100F40009BE4ACE4B0E08093C5019093C601A0930C
:100F5000C701B093C8010E94180E6093C901709335
:100F6000CA018093CB019093CC0160C0809196011F
:100F7000882309F47CC081E00E94FD0C2091980137
:100F800030E08217930709F072C050C0809163016E
:100F900090916401A0916501B0916601892B8A2B23
:100FA0008B2B09F464C08091630190916401A0913E
:100FB0006501B091660181159041A340B105D0F063
:100FC0008091630190916401A0916501B0916601E7
:100FD00081159A40AD43B10590F4809163019091E1
:100FE0006401A0916501B0916601692F7A2F8B2F62
:100FF000992709C060E173E080E090E004C069E0F7
:101000007DE380E090E06093220170932301809360
:101010002401909325010E946311109263011092A4
:101020006401109265011092660121C0DF91CF9199
:10103000FF90EF90DF90CF900C94AE1081E00E9473
:10104000FD0C0197A1F480916001882381F010923A
:10105000600180917F0181110AC080EC91E0DF91F5
:10106000CF91FF90EF90DF90CF900C944115DF91DE
:10107000CF91FF90EF90DF90CF900895CF92DF92C5
:10108000EF92FF921F93CF93DF93D0915401E091A1
:101090007E01F0E0EE0FFF1FED5CFE4F0190F0814E
:1010A000E02DED0FF11DC49180915501C81708F492
:1010B000C0E0C0901C01D0901D01B6018C2F90E0C3
:1010C0000E945803182F80912E01811101C0C095F4
:1010D000E0901A01F0901B01B7018C2F90E00E9464
:1010E0005803C82FCE14DF045CF0612F70E083E05A
:1010F0000E949E0D80919301882359F0C0E009C0A1
:10110000682F70E083E00E949E0D80919301811111
:1011100010E0612F70E089E00E949E0D6C2F70E05E
:101120008AE00E949E0D81E08D0F80935401909182
:10113000530187FD0DC0992311F0811137C08091B3
:10114000160190911701A0911801B09119010CC0DE
:10115000992311F0803851F580911201909113017B
:10116000A0911401B09115018093550290935602FD
:10117000A0935702B0935802809155029091560265
:10118000A0915702B09158028093590290935A024D
:10119000A0935B02B0935C020E94180E60935D0204
:1011A00070935E0280935F0290936002DF91CF9113
:1011B0001F91FF90EF90DF90CF9008954F925F9234
:1011C0006F927F928F929F92AF92BF92CF92DF9257
:1011D000EF92FF92CF93C62F90919201992389F0BD
:1011E000282F30E03093950120939401682F82E0FE
:1011F00090E00E946B1B80919401809342031092B7
:101200009201C63008F0E9C083E1C89FB001112403
:10121000665F7F4F43E150E08BE691E00E94491BFF
:1012200080916B01813208F080E280932A01409026
:101230006C0150906D0160906E0170906F0120E024
:1012400030E040E05FE3C301B2010E94491C87FD2A
:1012500011C020E030E040E850E4C301B2010E9438
:10126000A81D181664F4412C512C40E8642E40E46B
:10127000742E05C0412C512C612C5FE3752E4092D9
:1012800026015092270160922801709229018091D5
:101290007001853008F084E080937E01C090710178
:1012A000D0907201E0907301F090740180E1C81653
:1012B00083E0D806E104F10470F08AE0C8168DE3FB
:1012C000D806E104F10468F039E0C32E3DE3D32EE3
:1012D000E12CF12C06C020E1C22E23E0D22EE12C1D
:1012E000F12CC0922201D0922301E0922401F092CD
:1012F00025018090750190907601A0907701B090C3
:10130000780120E030E040E85DE3C501B4010E94CF
:10131000491C87FD11C020E030E040E75FE3C501D4
:10132000B4010E94A81D18166CF4812C912C80E742
:10133000A82E8FE3B82E06C0812C912C90E8A92E00
:101340009DE3B92E80921E0190921F01A092200170
:10135000B09221018091790190917A0181329105B9
:1013600014F080E290E097FF02C080E090E090935C
:101370001D0180931C0180917B0190917C01813241
:10138000910514F080E290E097FF02C080E090E0C9
:1013900090931B0180931A0180917D0180932E010F
:1013A000C701B6010E94F61CA30192010E944E1CC7
:1013B0000E94C71C9B01AC01C501B401CF91FF90F5
:1013C000EF90DF90CF90BF90AF909F908F907F90E5
:1013D0006F905F904F900C941811CF91FF90EF9009
:1013E000DF90CF90BF90AF909F908F907F906F9045
:1013F0005F904F900895CF92DF92EF92FF921F93EC
:10140000CF93DF931F92CDB7DEB7F82E162FC82EDD
:10141000D12C809192018823B1F0D0929501C09295
:1014200094016F2D82E090E049830E946B1B60E085
:1014300083E090E00E946B1B8091940180934203B3
:101440001092920149811C3109F458C1A0F418315D
:1014500009F494C050F4153109F443C0163109F46D
:1014600078C0143109F08FC126C01A3109F4D5C0F3
:1014700008F49DC03AC1133309F464C148F41E3125
:1014800009F454C108F448C1133209F452C17BC1B4
:101490001C3709F460C11D3709F468C11D3509F016
:1014A00072C10F90DF91CF911F91FF90EF90DF906D
:1014B000CF900C94710F642F70E080E090E00E9458
:1014C000F61C0E94AD1D20E030E040E851E40E948F
:1014D000051E0E94C71C613208F060E260932A0179
:1014E00052C1463128F480E090E0A0E0BFE320C084
:1014F0004C3228F480E090E0A0E8BFE319C0423409
:1015000028F480E090E0A0ECBFE312C0483528F456
:1015100080E090E0A0E0B0E40BC04E3628F480E01C
:1015200090E0A0E4B0E404C080E090E0A0E8B0E483
:101530008093260190932701A0932801B09329015D
:1015400060912201709123018091240190912501E5
:1015500024C04A3118F410927E0115C1433310F4AF
:1015600081E003C04C3420F482E080937E010BC103
:10157000453610F483E0F9CF84E0F7CFAFE8B0E070
:10158000A41BB1099D010E94BD1E609322017093AE
:10159000230180932401909325010F90DF91CF9137
:1015A0001F91FF90EF90DF90CF900C946311642F08
:1015B00070E080E090E00E94F61C20E030E04EEF0A
:1015C00052E40E944E1C6B017C0120E030E040E8B8
:1015D0005DE30E94491C87FD11C020E030E040E738
:1015E0005FE3C701B6010E94A81D18166CF4C12C58
:1015F000D12C80E7E82E8FE3F82E06C0C12CD12C29
:1016000090E8E92E9DE3F92EC0921E01D0921F01B1
:10161000E0922001F092210193CF4034D0F180E29A
:1016200090E090931D0180931C01842F90E0A0E036
:10163000B0E09C01AD012054310941095109ACE9E8
:10164000BFEF0E94A61B2FE330E040E050E00E9475
:10165000791BDA01C9018C599F4FAF4FBF4FBC01B5
:10166000990F880B990B0E94F81C0E94AD1D20E079
:1016700030E040E851E40E94051E0E94C01C613227
:10168000710514F060E270E070931B0160931A0121
:101690007AC0242F30E0A4E6B0E00E94CD1B2FE3F7
:1016A00030E040E050E00E94791BB901330F880B15
:1016B000990B0E94F81C0E94AD1D20E030E040E82C
:1016C00051E40E94051E0E94C01C6132710514F095
:1016D00060E270E070931D0160931C0180E290E075
:1016E00090931B0180931A014EC0403420F081E09A
:1016F00080932E0148C010922E0145C0403430F036
:1017000081E080939601109297013DC0109296015E
:1017100081E08093970137C00F90DF91CF911F91A7
:10172000FF90EF90DF90CF900C94AE1010910E01CF
:1017300070CE403420F081E08093500124C010929C
:10174000500121C0403420F081E0809353011BC040
:101750001092530118C082E090E00E94591B90E063
:10176000909395018093940160E005C010929501DB
:101770001092940161E083E090E00E946B1B8091E5
:101780009401809342030F90DF91CF911F91FF90BE
:10179000EF90DF90CF900895089580E090E0089555
:1017A000FC01538D448D252F30E0842F90E0821B67
:1017B000930B541710F0CF96089501970895FC01EC
:1017C000918D828D981761F0828DDF01A80FB11D78
:1017D0005D968C91928D9F5F9F73928F90E008959C
:1017E0008FEF9FEF0895FC01918D828D981731F056
:1017F000828DE80FF11D858D90E008958FEF9FEFAA
:101800000895FC01918D228D892F90E0805C9F4F7F
:10181000821B91098F739927089580E090E0892BAE
:1018200029F00E94E41681110C9400000895833081
:1018300081F028F4813099F08230A1F0089587304A
:10184000A9F08830B9F08430D1F4809180008F7D88
:1018500003C0809180008F7780938000089584B5C5
:101860008F7702C084B58F7D84BD08958091B000CC
:101870008F7703C08091B0008F7D8093B000089572
:1018800008951F920F920FB60F9211242F938F93EA
:101890009F93EF93FF93E0918F02F09190028081EC
:1018A000E0919502F091960282FD12C090818091A4
:1018B00098028F5F8F7320919902821751F0E09107
:1018C0009802F0E0E158FD4F958F8093980201C097
:1018D0008081FF91EF919F918F912F910F900FBE7B
:1018E0000F901F901895FC01848DDF01A80FB11D8A
:1018F000A35ABF4F2C91848D90E001968F73992746
:10190000848FA689B7892C93A089B1898C91806432
:101910008C93938D848D981306C00288F389E02DF3
:1019200080818F7D80830895EF92FF920F931F93A4
:10193000CF93DF93EC0181E0888F9B8D8C8D981382
:1019400005C0E889F989808185FD24C0F62E0B8DBC
:1019500010E00F5F1F4F0F731127E02E8C8DE812E0
:101960000CC00FB607FCFACFE889F989808185FFA2
:10197000F5CFCE010E94730CF1CF8B8DFE01E80FE5
:10198000F11DE35AFF4FF0820B8FEA89FB898081BA
:10199000806207C0EE89FF896083E889F9898081C8
:1019A0008064808381E090E0DF91CF911F910F915F
:1019B000FF90EF900895CF93DF93EC01888D8823FB
:1019C000C9F0EA89FB89808185FD05C0A889B989AC
:1019D0008C9186FD0FC00FB607FCF5CF808185FF87
:1019E000F2CFA889B9898C9185FFEDCFCE010E94F5
:1019F000730CE7CFDF91CF910895CF93DF93282F1A
:101A000030E0F901E05CF94F8491F901E75DF94FAD
:101A1000D491F901EE5EF94FC491CC2391F081117C
:101A20000E94170CEC2FF0E0EE0FFF1FE85FF94F5C
:101A3000A591B491EC91ED2381E090E021F480E058
:101A400002C080E090E0DF91CF9108951F93CF9383
:101A5000DF93282F30E0F901E05CF94F8491F90120
:101A6000E75DF94FD491F901EE5EF94FC491CC23B3
:101A7000C9F0162F81110E94170CEC2FF0E0EE0F29
:101A8000FF1FE250FA4FA591B4918FB7F89411114E
:101A900005C09C91ED2FE095E92302C0EC91ED2B60
:101AA000EC938FBFDF91CF911F91089560E087E0A5
:101AB0000E94260D60E088E00E94260D8AE092E0F8
:101AC0000C944115CF93DF9390E0FC01E75DF94F53
:101AD0002491FC01EE5EF94F8491882361F190E03E
:101AE000880F991FFC01EC50FA4FC591D491FC016D
:101AF000E250FA4FA591B491611109C09FB7F894D3
:101B00008881209582238883EC912E230BC062303C
:101B100061F49FB7F8943881822F8095832388835E
:101B2000EC912E2B2C939FBF06C08FB7F894E881C1
:101B30002E2B28838FBFDF91CF9108951F93CF93D2
:101B4000DF93182FEB0161E00E94620D209711F4E2
:101B500060E004C0CF3FD10539F461E0812FDF910F
:101B6000CF911F910C94260DE12FF0E0E05CF94F2E
:101B7000E491E330F9F048F4E130B9F0E230A1F556
:101B800084B5806284BDC8BD34C0E730E9F0E83078
:101B900019F1E43049F580918000806280938000E3
:101BA000D0938B00C0938A0024C084B5806884BD24
:101BB000C7BD1FC080918000806880938000D09353
:101BC0008900C093880015C08091B0008068809320
:101BD000B000C093B3000DC08091B00080628093CC
:101BE000B000C093B40005C0C038D1050CF0B5CF2B
:101BF000AFCFDF91CF911F910895883028F08E30BC
:101C000010F08E5001C08FEF8770806480937C004D
:101C100080917A00806480937A0080917A0086FDBA
:101C2000FCCF809178002091790090E0922B08956C
:101C30003FB7F89480918E0190918F01A09190010F
:101C4000B091910126B5A89B05C02F3F19F00196D0
:101C5000A11DB11D3FBFBA2FA92F982F8827820F32
:101C6000911DA11DB11DBC01CD0142E0660F771F82
:101C7000881F991F4A95D1F708958F929F92AF922E
:101C8000BF92CF92DF92EF92FF926B017C010E9494
:101C9000180E4B015C01C114D104E104F104F1F010
:101CA0000E94180EDC01CB0188199909AA09BB0909
:101CB000883E9340A105B10570F321E0C21AD10816
:101CC000E108F10888EE880E83E0981EA11CB11C83
:101CD000C114D104E104F10419F7DDCFFF90EF90B6
:101CE000DF90CF90BF90AF909F908F9008954F92CC
:101CF0005F926F927F928F929F92AF92BF92CF929C
:101D0000DF92EF92FF920F931F93CF93DF93C1E087
:101D1000C0937F01D09188016D2F84E00E94260D31
:101D2000CD27C093880181E00E94FD0C019709F046
:101D30009BC0C0912B01D0912C01219760E084E0E1
:101D40000E94260D68EE73E080E090E00E943D0E58
:101D50004090260150902701609028017090290141
:101D600090917E018090220190902301A090240107
:101D7000B0902501C0901E01D0901F01E09020017D
:101D8000F090210140911C0150911D0120911A01F8
:101D900030911B0180912E0160912A0160936B01AB
:101DA00040926C0150926D0160926E0170926F01D1
:101DB000909370018092710190927201A0927301D0
:101DC000B0927401C0927501D0927601E0927701D1
:101DD000F092780150937A014093790130937C011D
:101DE00020937B0180937D0183E18C9FB0018D9FC7
:101DF000700D1124665F7F4F43E150E08BE691E068
:101E00000E94611B00E010E0C017D107BCF061E048
:101E100084E00E94260D60E971E080E090E00E947D
:101E20003D0E60E084E00E94260D60E971E080E0F4
:101E300090E00E943D0E0F5F1F4FE6CF10927F0192
:101E400080EC91E0DF91CF911F910F91FF90EF9087
:101E5000DF90CF90BF90AF909F908F907F906F90CA
:101E60005F904F900C944115DF91CF911F910F918E
:101E7000FF90EF90DF90CF90BF90AF909F908F90AA
:101E80007F906F905F904F9008950F931F930E94E3
:101E9000180E0091800110918101209182013091F2
:101EA0008301DC01CB01801B910BA20BB30B8131B1
:101EB0009742A105B10590F00E94180E6093800131
:101EC00070938101809382019093830162E070E0BE
:101ED00081E79FE01F910F910C94F0161F910F91D5
:101EE00008950F931F930E94180E00918001109186
:101EF00081012091820130918301DC01CB01801BA3
:101F0000910BA20BB30B81319742A105B10508F4E7
:101F100049C00E94180E009167011091680120913C
:101F2000690130916A01DC01CB01801B910BA20B8E
:101F3000B30B803C964CAD42B105C0F40E94180E24
:101F400000916701109168012091690130916A0147
:101F5000DC01CB01801B910BA20BB30B80936301BF
:101F600090936401A0936501B09366010E94180EDE
:101F700060936701709368018093690190936A018F
:101F80000E94180E609380017093810180938201FA
:101F90009093830163E070E085E49FE01F910F91CF
:101FA0000C94F0161F910F9108951F920F920FB687
:101FB0000F9211242F933F938F939F93AF93BF93CF
:101FC00080918A0190918B01A0918C01B0918D013B
:101FD0003091890123E0230F2D3720F40196A11DB4
:101FE000B11D05C026E8230F0296A11DB11D209347
:101FF000890180938A0190938B01A0938C01B09307
:102000008D0180918E0190918F01A0919001B091EE
:1020100091010196A11DB11D80938E0190938F01B6
:10202000A0939001B0939101BF91AF919F918F9137
:102030003F912F910F900FBE0F901F9018951F92F8
:102040000F920FB60F9211242F933F934F935F93EC
:102050006F937F938F939F93AF93BF93EF93FF9370
:10206000E0913101F09132010995FF91EF91BF911B
:10207000AF919F918F917F916F915F914F913F9120
:102080002F910F900FBE0F901F9018951F920F92D7
:102090000FB60F9211242F933F934F935F936F933B
:1020A0007F938F939F93AF93BF93EF93FF93E091B1
:1020B0002F01F09130010995FF91EF91BF91AF9100
:1020C0009F918F917F916F915F914F913F912F9150
:1020D0000F900FBE0F901F9018956D3F71053CF447
:1020E0006A3F710554F4683F710589F406C09B018D
:1020F0002E5F31092230310550F4DC018D919C9125
:10210000DC01ED91FC910190F081E02D099408959E
:1021100087FF0DC09CE0980F923048F0982F9B7F6E
:10212000993F29F0803F08F4807F90E0089580E097
:1021300090E008959C018F7C8038910561F0203DEE
:10214000310549F081E0203E310539F0203C310570
:1021500021F080E0089581E0089508950F931F9382
:10216000CF93F8940E94180E00918401109185017C
:102170002091860130918701DC01CB01801B910BFE
:10218000A20BB30B81329E44A105B105C0F1809131
:102190009801C1E08C27809398016091980184E0B8
:1021A0000E94260D60E087E00E94260D60E088E036
:1021B0000E94260D609198016C2787E00E94260DF1
:1021C0006091980188E00E94260D8AE092E00E94CA
:1021D0007D1580E49DE0A3E0B0E080930F02909332
:1021E0001002A0931102B09312020E94180E609385
:1021F00013027093140280931502909316020E94AA
:10220000180E6093840170938501809386019093EA
:1022100087017894CF911F910F9108958091960135
:10222000811102C00E94AE108BE991E00C9441151F
:102230008F929F92AF92BF92CF92DF92EF92FF92D6
:102240006B017C0180912E01811104C0220F331F8C
:10225000441F551FCA01B901660F771F881F991FB8
:102260000E94F61C4B015C01A70196010E94051E0D
:102270000E94C71C60931601709317018093180188
:1022800090931901A701960160E070E080E89FE358
:102290000E94DC1B9B01AC01C501B4010E94051E1C
:1022A0000E94C71C60931201709313018093140164
:1022B00090931501FF90EF90DF90CF90BF90AF907B
:1022C0009F908F90089560912201709123018091D9
:1022D0002401909125010E94F61C20912601309145
:1022E000270140912801509129010E944E1C0E9413
:1022F000C71C9B01AC0160911E0170911F01809170
:102300002001909121010E94181184E592E00C9423
:102310007D15DC01ED91FC910190F081E02D099497
:10232000EF92FF920F931F93CF93DF93109142038D
:10233000113108F09FC38091400390914103DC016B
:10234000ED91FC910084F185E02D0995892B09F42C
:1023500091C38091400390914103DC01ED91FC9188
:102360000284F385E02D0995EC018B7F893F09F408
:1023700081C320914A0330914B032115310509F0A7
:10238000AFC0C093450300914303802F0E94881083
:102390000E949A10882361F0C7FD0AC0009345038C
:1023A000C093460381E090E090934B0380934A03EF
:1023B000C09145038C2F0E948810813F910509F43C
:1023C00061C084F5803B910509F45FC06CF48039ED
:1023D000910509F45AC0803A910509F456C0803835
:1023E000910509F0DBC051C0803D910509F44AC058
:1023F0002CF4803C910509F445C0D0C0803E910585
:1024000009F443C0803F910509F0C8C020E830E0DE
:1024100030934903209348031092430320EF209305
:10242000560339C0883F9105B9F044F4833F9105C4
:1024300049F15CF1863F910579F0B0C08A3F910582
:102440000CF4ACC08D3F91053CF09C012E5F31092E
:102450002230310508F0A2C09093530380935203B9
:1024600010925103109254031092550381E080930F
:10247000D60310924B0310924A0310924903109214
:102480004803EAC022E030E002C023E030E03093AD
:1024900049032093480320914A0330914B03409114
:1024A000480350914903415051092417350708F456
:1024B000CCC09093530380935203CF70CF5FC093EF
:1024C0005103809146038093540310925503109258
:1024D0004B0310924A03109249031092480321C003
:1024E000C7FF46C0CE0199278D3F910554F48A3F1E
:1024F00091056CF4873F9105C1F0883F9105C1F5C6
:1025000006C0AC014E5F51094230510588F59093E9
:102510005303809352031092540310925503109268
:10252000510381E08093D60397C080915603803F8A
:10253000A9F5C9010196F901E45EFC4F47EF42AFEE
:1025400020EF30E0309353032093520380935403E1
:10255000909355031092510381E08093D60310921B
:102560004B0310924A0310924903109248036AC029
:1025700080914503F901E45EFC4F803FD1F4C2AF86
:10258000E0904803F0904903C701019728173907E5
:1025900008F45BC000914503003F69F410924B03BF
:1025A00010924A0310924903109248031092430379
:1025B00061C2C1A7E5CF802F0E948810EC019093E3
:1025C0005303809352030E949A10882331F0802F86
:1025D0008F708F5F8093510302C0109251038091DE
:1025E00046038093540323E0E216F10419F480912A
:1025F000470301C080E08093550310924B03109273
:102600004A03109249031092480381E08093D60355
:10261000C03BD105A1F054F4C039D10581F0C03AD6
:10262000D10569F0C038D10569F409C0C03DD105B4
:1026300031F0C03ED10519F0C03CD10519F400932A
:1026400043030AC01092430307C02F5F3F4F3093EC
:102650004B0320934A030EC280915203909153037F
:102660008039910529F480915503882309F422C10A
:1026700080915203909153039C01205831092136D7
:10268000310508F01EC120915103211709F419C129
:1026900011111EC016C1813D91050CF468C1803E28
:1026A000910509F075C1E0912803F0912903309755
:1026B00079F0609155036F7780E8689FB00111242D
:1026C000809154038F77682B705280915103099544
:1026D00040915003342F317040FFCCC1842F8E7F46
:1026E00009F4C8C18091520390915303BC01605812
:1026F00071096136710530F520915103211719F0E8
:1027000031E0111130E0469550E04230510541F082
:102710004330510549F04130510509F0ABC106C0C5
:10272000332309F4A7C102C03111A4C1409155035C
:1027300060915403DF91CF911F910F91FF90EF9023
:102740000C94FC16FC01E05FF109E031F10508F0A2
:1027500091C1E35CFF4F0C94B71EBC0180E493E091
:10276000DF91CF911F910F91FF90EF900C946D101E
:10277000C0915503D0E0DC2FCC2780915403C82BA7
:10278000C138D10510F0C0E8D0E000E010E00C172F
:102790001D0709F46FC18091400390914103DC0152
:1027A000ED91FC91D801A45EBC4F0190F081E02D29
:1027B000DA966C9109950F5F1F4FE9CFC0915403D2
:1027C0008091400390914103DC01ED91FC910190D7
:1027D000F081E02D63EF0995CF776C2F70E0809149
:1027E000400390914103DF91CF911F910F91FF9092
:1027F000EF900C948911C0915503B0E8CB9FE00194
:10280000112480915403C82B80914003909141037F
:10281000DC01ED91FC910190F081E02D62EF0995D2
:102820008091400390914103DC01ED91FC91BE0148
:102830006F7777270190F081E02D09958091400313
:1028400090914103DC01ED91FC91BE01660F672F71
:10285000661F770B71956F7777270190F081E02DD8
:1028600022C0809154038770B0E18B9FC001112476
:10287000C0915503CF70C82B8091400390914103C4
:10288000DC01ED91FC910190F081E02D61EF099563
:102890008091400390914103DC01ED91FC91019006
:1028A000F081E02D6C2FDF91CF911F910F91FF9060
:1028B000EF90099480E890E0909353038093520343
:1028C000D7CE813F9105C1F4E0912C03F0912D0307
:1028D0000CC08B3F91050CF0ACC0833F910509F013
:1028E00089C0E0913003F0913103309709F4F0CEC4
:1028F000809154030995ECCE823F91050CF064C0A1
:10290000803B9105C1F4E0912203F091230308C0BC
:102910008038910509F0DCCEE0911C03F0911D0395
:10292000309709F4D5CE40915503609154038091BE
:1029300051030995CDCE813B910584F480399105F1
:1029400029F4E0911E03F0911F03EACF803A91052C
:10295000F9F6E0912003F0912103E2CF803D91054B
:1029600009F099CEE0912603F091270308C0803C3E
:10297000910509F0ADCEE0912403F0912503309745
:1029800009F4A6CE60915403809151030995A0CE1D
:10299000803F910509F09CCEE0912A03F0912B0332
:1029A000309709F495CE6091550370E0762F662735
:1029B00080915403682B6138710510F060E870E075
:1029C00086E593E0099584CE8A3F910509F081CF91
:1029D000E0913603F091370308C0883F910509F074
:1029E00077CEE0913403F0913503309709F470CE3F
:1029F00009956ECE833F9105A4F4E0912E03F091EA
:102A00002F03309709F464CE809155038F77A0E8A7
:102A10008A9FC0011124209154032F77822B09959E
:102A200057CE863F9105C9F6E0913203F09133030A
:102A3000DCCF8C3F910529F4E0913A03F0913B0300
:102A4000D4CF8C3F91052CF4E0913803F0913903F9
:102A5000CCCF8E3F910529F4E0913C03F0913D03EA
:102A6000C4CF8F3F910509F033CEE0913E03F09142
:102A70003F03BBCFDF91CF911F910F91FF90EF905C
:102A80000895EF92FF920F931F93CF93DF931F92BE
:102A9000CDB7DEB7DC019C918C918E7F8C938C91AD
:102AA0008D7F8C93892F817090FF1FC05D962D9133
:102AB0003C915E9721153105C1F07D0193960D90F3
:102AC000BC91A02D14960D911C9115971596FC9212
:102AD000EE9214978983F9010995D7019396ED91A8
:102AE000FC9194971583048389810F90DF91CF9196
:102AF0001F910F91FF90EF9008950F931F93CF9325
:102B0000DF93FC01A3A1B4A11097E9F1EC01158AB0
:102B1000168A178A108E038CF48DE02D309779F188
:102B2000888181FD2CC014960D911C9115971596E6
:102B3000DC93CE931497888182608883099598816D
:102B400080FB90F9988388818D7F8883EBA1FCA11D
:102B5000158304830E94180E09811A812B813C8100
:102B60000D831E832F833887DC01CB01801B910BE3
:102B7000A20BB30B89879A87AB87BC8704C0888177
:102B800081608883E7CFDF91CF911F910F910895E6
:102B9000CF93DF93EC010E9441158BA19CA100977C
:102BA00059F1EF8DF8A1A9A1BAA1309799F4109726
:102BB00049F4DC0111961C921E9213961C921E92EF
:102BC00012971AC090961C921E925F97FC01B183D7
:102BD000A08312C0109741F412A211A2DC01139637
:102BE000FC93EE93129708C0B2A3A1A3A9A1BAA126
:102BF0009096FC93EE935F97DF91CF9108952F927B
:102C00003F924F925F926F927F928F929F92AF927C
:102C1000CF92DF92EF92FF920F931F93CF93DF93A8
:102C2000CDB7DEB73C01180129010C891D89DC01F3
:102C30008C918E7F8C938C918D7F8C93F301118678
:102C400012861386148615961D921D921D921C9253
:102C50001897118212821382148210A2178E12A268
:102C600011A214A213A255961D921D921D921C92A0
:102C70005897418352836383748381819281A381B6
:102C8000B48185839683A783B0870E94180ED301F1
:102C900019966D937D938D939C931C97F3012586D4
:102CA00036864786508A51962D923D924D925C927F
:102CB00054975A96FC92EE9259975C969C928E92FB
:102CC0005B975E961C930E935D97C114D10449F1F6
:102CD00093968D919C9194978C159D0511F19496E6
:102CE000DC92CE929397F60180819181892B39F401
:102CF0007182608290961C921E925F970AC0028039
:102D0000F381E02DD3019096FC93EE935F9772A22E
:102D100061A2F30112A211A2D60113967C926E92C7
:102D20001297AA20A1F0C301DF91CF911F910F91BB
:102D3000FF90EF90DF90CF90AF909F908F907F901B
:102D40006F905F904F903F902F900C947D15DF9186
:102D5000CF911F910F91FF90EF90DF90CF90AF90A8
:102D60009F908F907F906F905F904F903F902F90AB
:102D70000895CF92DF92EF92FF920F931F93CF931C
:102D8000DF936C017A018B01C0E0D0E0CE15DF0546
:102D900089F0D8016D918D01D601ED91FC910190E2
:102DA000F081E02DC6010995892B11F47E0102C046
:102DB0002196ECCFC701DF91CF911F910F91FF902A
:102DC000EF90DF90CF9008958FE792E00E94010C82
:102DD00021E0892B09F420E0822F08950E94CC1E67
:102DE0009093300180932F01E9E6F0E080818C7FA1
:102DF000682B6083E89A0895EF92FF921F93CF9318
:102E0000DF931F92CDB7DEB77C01162F2150203102
:102E100008F04EC080E8E816F1040CF449C0A1EEB9
:102E2000EA16F104ACF58091400390914103DC0176
:102E3000ED91FC916E2D622B0190F081E02D498384
:102E400009958091400390914103DC01ED91FC9143
:102E5000612F6F770190F081E02D0995E894E4F8F7
:102E60004981B0ECEB16F10419F180914003909187
:102E70004103DC01ED91FC91642F6F770190F081AB
:102E8000E02D0F90DF91CF911F91FF90EF9009946B
:102E9000C701885F9109089758F4B70180E493E06F
:102EA0000F90DF91CF911F91FF90EF900C946D10D8
:102EB0000F90DF91CF911F91FF90EF9008951F9297
:102EC0000F920FB60F9211242F933F934F935F935E
:102ED0006F937F938F939F93AF93BF93EF93FF93E2
:102EE0008FE792E00E94730CFF91EF91BF91AF9139
:102EF0009F918F917F916F915F914F913F912F9112
:102F00000F900FBE0F901F9018958BE991E00E94D3
:102F1000C81580EC91E00E94C81585EE91E00E94F2
:102F2000C8158AE092E00E94C8158FE292E00E94E4
:102F3000C81584E592E00C94C815CF93DF93EC019B
:102F400060E083E01C161D06A4F40E94260D66E9CD
:102F500070E080E090E00E943D0E61E083E00E941E
:102F6000260D66E970E080E090E00E943D0E21971A
:102F7000E7CF0E94260D60E273E080E090E0DF91F1
:102F8000CF910C943D0E8F929F92AF92CF92DF9291
:102F9000EF92FF920F931F93CF93DF93AFE7B2E0CF
:102FA00013961C921E92129748EE53E060E070E078
:102FB00014964D935D936D937C93179781E491E004
:102FC00011969C938E9385EC90E01D969C938E9326
:102FD0001C9784EC90E01F969C938E931E9780EC38
:102FE00090E051969C938E93509781EC90E053968D
:102FF0009C938E93529782EC90E055969C938E937F
:10300000549786EC90E057969C938E9356975996DA
:103010001C9259975A961C925A975B961C925B97F2
:103020005C961C925C9784E690E090939A01809362
:103030009901ECE1F3E0B5A3A4A316A217A210A690
:1030400015A614A617A616A68FEF9FEF91AB80AB1F
:1030500093AB82AB83E08093500315AA17AA16AAFC
:1030600010AE11AE1092D60380E8A6E5B3E0ED01F4
:1030700019928A95E9F711821082138212821582C1
:103080001482178216821186108613861286158680
:10309000148617861686118A108A138A128A158A50
:1030A000148A178A168A118E108E138E128E158E20
:1030B000148E178E168E11A210A213A212A2E9E787
:1030C000F2E01182108213821282158214821F9202
:1030D0001F92812C912CA12C6F018EE3E82E88E0A9
:1030E000F82E0FEF1FEF980140E153E060E070E031
:1030F00084E592E00E94FF151F921F929FE7E92E40
:1031000094E0F92E0FEF1FEF980140EA5FE060E0D6
:1031100070E08FE292E00E94FF151F921F9226E559
:10312000E22E2DE0F22E0FEF1FEF980140E050E06D
:10313000BA018AE092E00E94FF151F921F9230E9C7
:10314000E32E31E1F32E0FEF1FEF980140EA50E03C
:1031500060E070E085EE91E00E94FF151F921F92E3
:1031600047E7E42E4EE0F42E0FEF1FEF980140E208
:103170005EE460E070E080EC91E00E94FF151F9239
:103180001F925EE0E52E51E1F52E0FEF1FEF980143
:1031900040E050E0BA018BE991E00E94FF158DB745
:1031A0009EB70C960FB6F8949EBF0FBE8DBFDF91F1
:1031B000CF911F910F91FF90EF90DF90CF90AF9044
:1031C0009F908F900895789484B5826084BD84B573
:1031D000816084BD85B5826085BD85B5816085BD12
:1031E00080916E00816080936E00109281008091CA
:1031F0008100826080938100809181008160809352
:103200008100809180008160809380008091B10076
:1032100084608093B1008091B00081608093B000A1
:1032200080917A00846080937A0080917A00826035
:1032300080937A0080917A00816080937A008091F7
:103240007A00806880937A001092C100809181009A
:10325000887F81608093810061E083E00E94620D3D
:1032600061E084E00E94620D61E087E00E94620DEF
:1032700061E088E00E94620D62E082E00E94620DDF
:1032800062E085E00E94620D62E086E00E94620DCD
:1032900062E081E00E94620D60E080E00E94620DC9
:1032A00061E081E00E94260DCFE1D0E082E00E9443
:1032B000FD0C892B09F03FC081E00E94FD0C892B99
:1032C000D1F564E670E080E090E00E943D0E219729
:1032D00069F781E0809393018093920110929501A8
:1032E0001092940161E083E090E00E946B1B80915A
:1032F00094018093420310922D010FE010E0C0E092
:10330000D1E0CD276C2F84E00E94260D6C2F83E046
:103310000E94260D6C2F89E00E94260D6C2F8AE0FA
:103320000E94260D64E670E080E090E00E943D0E71
:103330000150110931F7CEE1D0E082E00E94FD0C8E
:10334000892B49F464E670E080E090E00E943D0E35
:10335000219799F703C0CEE1D0E01FC082E090E052
:103360000E949D1783E090E00E949D1786E090E008
:103370000E949D1760E083E00E94260D60EA7FE0D6
:1033800080E090E00E943D0EE9CF64E670E080E0CE
:1033900090E00E943D0E219731F081E00E94FD0CEB
:1033A000892B99F329C081E090E00E94591BC1E06C
:1033B000811101C0C0E061E06C2781E090E00E94D3
:1033C0006B1BD0E02196CC0FDD1FCC0FDD1FE12C55
:1033D000F12C10E001E01027612F84E00E94260DFF
:1033E00064E670E080E090E00E943D0E8FEFE81A06
:1033F000F80AEC16FD0679F768EC70E080E090E0E2
:103400000E943D0E81E090E00E94591B91E08111E5
:1034100001C090E0909398010E94AE1085E00E9458
:10342000FD0C21E0892B09F020E02093970181E039
:1034300082278093960186E00E94FD0C21E0892B73
:1034400009F420E020932E0162E070E081E79FE024
:103450000E94F01683E090E00E94591B91E08111D8
:1034600001C090E09093D703992329F01092950121
:103470001092940109C082E090E00E94591B90E0F4
:10348000909395018093940190919401E091400371
:10349000F0914103A089B18982E08C93A485B58520
:1034A0001C92A685B7858FE38C93108EA489B5896D
:1034B00086E08C93A289B3898C9180618C93A289D8
:1034C000B3898C9188608C93A289B3898C91806830
:1034D0008C930288F389E02D80818F7D8083909387
:1034E0004203109244031092430310924B03109234
:1034F0004A0310924903109248038FEF9FEF909375
:103500004D0380934C0390934F0380934E0310928E
:10351000D60310925303109252031092510310924B
:10352000540310925503109250038BEF99E090933F
:103530002303809322038EED98E0909325038093DC
:1035400024038BE594E090931F0380931E038CE08B
:1035500094E0909335038093340388EB93E0909349
:1035600037038093360386EA93E090933B0380937E
:103570003A038FEA93E0909339038093380384E50C
:1035800092E00E947D158FE292E00E947D1585EE0B
:1035900091E00E947D158091790290917A0290933A
:1035A0007E0280937D0280917D0290917E02009741
:1035B00009F46CC0FC01208120FF61C0458556855F
:1035C00067857089452B462B472B19F40E944115BE
:1035D00056C00E94180EE0917D02F0917E0281801B
:1035E0009280A380B480C184D284E384F484058172
:1035F000168127813085DC01CB018C199D09AE092C
:10360000BF0980179107A207B307C8F18585968582
:10361000A785B089181619061A061B065CF485855D
:103620009685A785B0890197A109B10985879687F5
:10363000A787B08B85899689A789B08D0196A11D32
:10364000B11D858B968BA78BB08F85819681A781C5
:10365000B0850185128523853485800F911FA21FB7
:10366000B31F81879287A387B48785829682A782BA
:10367000B086018CF28DE02D309709F00995E0912C
:103680007D02F0917E0281A192A189CF0E940D0C52
:1036900082CFDC01CB01FC01F999FECF06C0F2BD5F
:1036A000E1BDF89A319600B40D9241505040B8F700
:1036B0000895F999FECF92BD81BDF89A992780B5FA
:1036C0000895DC01CB0103C02D910E946C1B415079
:1036D0005040D0F70895262FF999FECF1FBA92BD1A
:1036E00081BD20BD0FB6F894FA9AF99A0FBE0196E3
:1036F0000895052E97FB1EF400940E94901B57FD21
:1037000007D00E94AB1B07FC03D04EF40C94901B17
:1037100050954095309521953F4F4F4F5F4F0895FD
:1037200090958095709561957F4F8F4F9F4F08952D
:103730000E94CD1BA59F900DB49F900DA49F800D5E
:10374000911D11240895B7FF0C94981B0E94981B9B
:10375000821B930B0895A1E21A2EAA1BBB1BFD012D
:103760000DC0AA1FBB1FEE1FFF1FA217B307E40760
:10377000F50720F0A21BB30BE40BF50B661F771FB8
:10378000881F991F1A9469F7609570958095909598
:103790009B01AC01BD01CF010895A29FB001B39F71
:1037A000C001A39F700D811D1124911DB29F700D4A
:1037B000811D1124911D08955058BB27AA270E94EE
:1037C000F41B0C946E1D0E94601D38F00E94671D52
:1037D00020F039F49F3F19F426F40C945D1D0EF48B
:1037E000E095E7FB0C94571DE92F0E947F1D58F3CD
:1037F000BA17620773078407950720F079F4A6F5D6
:103800000C94A11D0EF4E0950B2EBA2FA02D0B01E8
:10381000B90190010C01CA01A0011124FF27591B15
:1038200099F0593F50F4503E68F11A16F040A22F1B
:10383000232F342F4427585FF3CF4695379527958C
:10384000A795F0405395C9F77EF41F16BA0B620B8B
:10385000730B840BBAF09150A1F0FF0FBB1F661FD2
:10386000771F881FC2F70EC0BA0F621F731F841F15
:1038700048F4879577956795B795F7959E3F08F03B
:10388000B0CF9395880F08F09927EE0F97958795FD
:1038900008950E94331D08F481E008950E94621C7F
:1038A0000C946E1D0E94671D58F00E94601D40F030
:1038B00029F45F3F29F00C94571D51110C94A21D5F
:1038C0000C945D1D0E947F1D68F39923B1F355236D
:1038D00091F3951B550BBB27AA2762177307840723
:1038E00038F09F5F5F4F220F331F441FAA1FA9F3B9
:1038F00035D00E2E3AF0E0E832D091505040E695A7
:10390000001CCAF72BD0FE2F29D0660F771F881F07
:10391000BB1F261737074807AB07B0E809F0BB0BFA
:10392000802DBF01FF2793585F4F3AF09E3F51050E
:1039300078F00C94571D0C94A21D5F3FE4F3983E61
:10394000D4F3869577956795B795F7959F5FC9F7F7
:10395000880F911D9695879597F90895E1E0660F78
:10396000771F881FBB1F621773078407BA0720F0F1
:10397000621B730B840BBA0BEE1F88F7E09508955A
:103980000E94C71C6894B1110C94A21D08950E9456
:10399000871D88F09F5798F0B92F9927B751B0F03D
:1039A000E1F0660F771F881F991F1AF0BA95C9F7C3
:1039B00014C0B13091F00E94A11DB1E008950C94A3
:1039C000A11D672F782F8827B85F39F0B93FCCF356
:1039D000869577956795B395D9F73EF49095809540
:1039E000709561957F4F8F4F9F4F0895E89409C060
:1039F00097FB3EF490958095709561957F4F8F4F22
:103A00009F4F9923A9F0F92F96E9BB279395F69537
:103A1000879577956795B795F111F8CFFAF4BB0FB5
:103A200011F460FF1BC06F5F7F4F8F4F9F4F16C019
:103A3000882311F096E911C0772321F09EE8872FA3
:103A4000762F05C0662371F096E8862F70E060E05F
:103A50002AF09A95660F771F881FDAF7880F9695D8
:103A6000879597F90895990F0008550FAA0BE0E87C
:103A7000FEEF16161706E807F907C0F01216130630
:103A8000E407F50798F0621B730B840B950B39F470
:103A90000A2661F0232B242B252B21F408950A26D6
:103AA00009F4A140A6958FEF811D811D089597F916
:103AB0009F6780E870E060E008959FEF80EC0895D4
:103AC00000240A94161617061806090608950024FD
:103AD0000A9412161306140605060895092E039477
:103AE000000C11F4882352F0BB0F40F4BF2B11F4EB
:103AF00060FF04C06F5F7F4F8F4F9F4F089557FD4A
:103B00009058440F551F59F05F3F71F04795880F4B
:103B100097FB991F61F09F3F79F0879508951216E2
:103B200013061406551FF2CF4695F1DF08C016168E
:103B300017061806991FF1CF86957105610508943F
:103B40000895E894BB2766277727CB0197F9089556
:103B50000E94331D08F48FEF08950E94BD1D29EDCA
:103B60003BE54EED5EE30C94051E16F00C94721EC0
:103B70000C945D1D68940C94571D0E94871DA8F33A
:103B80009923C1F3AEF3DF93CF931F930F93FF926B
:103B9000C92FDD2788232AF02197660F771F881FFA
:103BA000DAF720E030E040E85FEB9FE3883920F06F
:103BB000803E38F021968F770E94DD1BEAE9F0E025
:103BC00004C00E94DD1BE7ECF0E00E94801E8B0128
:103BD000BE01EC01FB2E6F5771097595771F880B9D
:103BE000990B0E94F81C28E132E741E35FE30E9451
:103BF000181EAF2D9801AE01FF900F911F91CF912C
:103C0000DF910E94F41B0C946E1D0E94181E0C94F0
:103C10006E1D0E94601D38F00E94671D20F09523E4
:103C200011F00C94571D0C945D1D11240C94A21DD1
:103C30000E947F1D70F3959FC1F3950F50E0551FB3
:103C4000629FF001729FBB27F00DB11D639FAA27F1
:103C5000F00DB11DAA1F649F6627B00DA11D661F40
:103C6000829F2227B00DA11D621F739FB00DA11D61
:103C7000621F839FA00D611D221F749F3327A00D1B
:103C8000611D231F849F600D211D822F762F6A2FB7
:103C900011249F5750409AF0F1F088234AF0EE0F1C
:103CA000FF1FBB1F661F771F881F91505040A9F749
:103CB0009E3F510580F00C94571D0C94A21D5F3F50
:103CC000E4F3983ED4F3869577956795B795F79585
:103CD000E7959F5FC1F7FE2B880F911D96958795FD
:103CE00097F908959F3F31F0915020F4879577958B
:103CF0006795B795880F911D9695879597F90895C3
:103D0000DF93CF931F930F93FF92EF92DF927B018C
:103D10008C01689406C0DA2EEF010E94181EFE0185
:103D2000E894A5912591359145915591A6F3EF0120
:103D30000E94F41BFE019701A801DA9469F7DF9055
:103D4000EF90FF900F911F91CF91DF910895DB01CC
:103D50008F939F930E94981BBF91AF91A29F800D5C
:103D6000911DA39F900DB29F900D11240895EE0F09
:103D7000FF1F0590F491E02D09940E94CD1B332381
:103D800012F48A1B9B0B0C94C71E0E94CD1BB7FF1D
:103D90000895821B930B089581E090E0F8940C94B1
:103DA000D11E13E0CDE2D3E004C0FE010E94B71E95
:0C3DB0002196CE32D107C9F7F894FFCF5E
:103DBC00FFFFF6FFF6FFF6FFF6FFF6FFF6FF140027
:103DCC00F6FFC4000000C40000001000100000004A
:103DDC00003FC40000000000803F100200FF0140C3
:103DEC000C400CF404F403F402F401F400000000A1
:103DFC0000940CB916D00BDB0C010CDF0BF30B0091
:00000001FF
