:100000000C941E030C945B0D0C94820D0C9446030F
:100010000C9446030C9446030C9446030C9446033C
:100020000C9446030C9446030C9446030C9446032C
:100030000C9446030C9446030C9446030C9446031C
:100040000C94A90D0C9446030C9446030C9446039F
:100050000C9446030C9446030C9446030C944603FC
:100060000C9446030C944603660B680B6A0B6C0BEE
:100070006E0B700B720B740B760B08000000BE92B7
:100080002449123EABAAAA2ABECDCCCC4C3E0000DD
:100090000080BEABAAAAAA3E00000000BF0000007C
:1000A000803F0000000000084178D3BB4387D11394
:1000B0003D190E3CC3BD4282AD2B3E68EC8276BE3C
:1000C000D98FE1A93E4C80EFFFBE01C4FF7F3F0006
:1000D0000000000080828486888A8C8E909294969C
:1000E000989A9C9EA0A2A4A6A8AAACAEB0B2B4B6A0
:1000F000B8BABCBEC0C2C4C6C8CACCCED0D2D4D690
:10010000D8DADCDEE0E2E4E6E8EAECEEF0F2F4F67F
:10011000F8FAFCFEFFFDFBF9F7F5F3F1EFEDEBE983
:10012000E7E5E3E1DFDDDBD9D7D5D3D1CFCDCBC94F
:10013000C7C5C3C1BFBDBBB9B7B5B3B1AFADABA93F
:10014000A7A5A3A19F9D9B99979593918F8D8B892F
:10015000878583817F7D7B79777573716F6D6B691F
:10016000676563615F5D5B59575553514F4D4B490F
:10017000474543413F3D3B39373533312F2D2B29FF
:10018000272523211F1D1B19171513110F0D0B09EF
:100190000705030100020406080A0C0E10121416CB
:1001A000181A1C1E20222426282A2C2E30323436DF
:1001B000383A3C3E40424446484A4C4E50525456CF
:1001C000585A5C5E60626466686A6C6E70727476BF
:1001D000787A7C7EFFFFFFFFFFFFFFFFFFFFFFFF3F
:1001E000FFFFFFFFFFFFFFFFFFFFFFFFFFFFFFFF1F
:1001F000FFFFFFFFFFFFFFFFFFFFFFFFFFFFFFFF0F
:10020000FFFFFFFFFFFFFFFFFFFFFFFFFFFFFFFFFE
:10021000FFFFFFFFFFFFFFFFFFFFFFFFFFFFFFFFEE
:10022000FFFFFFFFFFFFFFFFFFFFFFFFFFFFFFFFDE
:10023000FFFFFFFFFFFFFFFFFFFFFFFFFFFFFFFFCE
:10024000FFFFFFFFFFFFFFFFFFFFFFFFFFFFFFFFBE
:10025000FFFFFFFF000000000000000000000000A2
:10026000000000000000000000000000000000008E
:10027000000000000000000000000000000000007E
:10028000000000000000000000000000000000006E
:10029000000000000000000000000000000000005E
:1002A000000000000000000000000000000000004E
:1002B000000000000000000000000000000000003E
:1002C000000000000000000000000000000000002E
:1002D00000000000FFFFFFFFFEFEFDFDFCFBFBFA40
:1002E000F9F8F7F5F4F3F1F0EEEDEBE9E8E6E4E226
:1002F000E0DEDBD9D7D5D2D0CDCBC8C6C3C0BDBB1D
:10030000B8B5B2AFACA9A6A3A09D9A9794918E8BD5
:100310008784817E7B7874716E6B6865625F5C59DF
:100320005653504D4A4744423F3C393734322F2DC3
:100330002A282624211F1D1B1917161412110F0E0F
:100340000C0B0A0807060504040302020101000061
:100350000000000000000000010102020304050685
:100360000708090A0C0D0E1011131517181A1C1E78
:1003700020232527292C2E303336383B3D40434659
:10038000494B4E5154575A5D6063666A6D7073767F
:10039000797C7F808386898C8F9295999C9FA2A57A
:1003A000A8ABAEB1B4B6B9BCBFC2C4C7C9CCCFD17B
:1003B000D3D6D8DADCDFE1E3E5E7E8EAECEEEFF10B
:1003C000F2F3F5F6F7F8F9FAFBFCFDFDFEFEFFFF90
:1003D000FFFFFFFFFFFEFDFCFBFAF9F8F7F6F5F46F
:1003E000F3F2F1F0EFEEEDECEBEAE9E8E7E6E5E455
:1003F000E3E2E1E0DFDEDDDCDBDAD9D8D7D6D5D445
:10040000D3D2D1D0CFCECDCCCBCAC9C8C7C6C5C434
:10041000C3C2C1C0BFBEBDBCBBBAB9B8B7B6B5B424
:10042000B3B2B1B0AFAEADACABAAA9A8A7A6A5A414
:10043000A3A2A1A09F9E9D9C9B9A99989796959404
:10044000939291908F8E8D8C8B8A898887868584F4
:10045000838281807F7E7D7C7B7A797877767574E4
:10046000737271706F6E6D6C6B6A696867666564D4
:10047000636261605F5E5D5C5B5A595857565554C4
:10048000535251504F4E4D4C4B4A494847464544B4
:10049000434241403F3E3D3C3B3A393837363534A4
:1004A000333231302F2E2D2C2B2A29282726252494
:1004B000232221201F1E1D1C1B1A19181716151484
:1004C000131211100F0E0D0C0B0A09080706050474
:1004D00003020100000102030405060708090A0BD4
:1004E0000C0D0E0F101112131415161718191A1BD4
:1004F0001C1D1E1F202122232425262728292A2BC4
:100500002C2D2E2F303132333435363738393A3BB3
:100510003C3D3E3F404142434445464748494A4BA3
:100520004C4D4E4F505152535455565758595A5B93
:100530005C5D5E5F606162636465666768696A6B83
:100540006C6D6E6F707172737475767778797A7B73
:100550007C7D7E7F808182838485868788898A8B63
:100560008C8D8E8F909192939495969798999A9B53
:100570009C9D9E9FA0A1A2A3A4A5A6A7A8A9AAAB43
:10058000ACADAEAFB0B1B2B3B4B5B6B7B8B9BABB33
:10059000BCBDBEBFC0C1C2C3C4C5C6C7C8C9CACB23
:1005A000CCCDCECFD0D1D2D3D4D5D6D7D8D9DADB13
:1005B000DCDDDEDFE0E1E2E3E4E5E6E7E8E9EAEB03
:1005C000ECEDEEEFF0F1F2F3F4F5F6F7F8F9FAFBF3
:1005D000FCFDFEFF0000000800020100000304070C
:1005E00000000000000000000000000102040810EC
:1005F000204080010204081020010204081020405D
:1006000080400404040404040404020202020202FE
:100610000303030303030202030000000023002678
:1006200000290000000000250028002B0000000029
:1006300000240027002A0000C10C2A0D11241FBE2F
:10064000CFEFD8E0DEBFCDBF11E0A0E0B1E0ECEF2E
:10065000F6E202C005900D92A033B107D9F721E070
:10066000A0E3B1E001C01D92A03FB207E1F713E0A3
:10067000CDE1D3E004C02197FE010E941913CC31D3
:10068000D107C9F70E940F100C9471130C9400004D
:100690000F931F930E94F30D0091E2011091E3016B
:1006A0002091E4013091E501DC01CB01801B910B2D
:1006B000A20BB30B81319742A105B10508F44AC0E2
:1006C0000E94F30D0091DE011091DF012091E00105
:1006D0003091E101DC01CB01801B910BA20BB30B2C
:1006E000803C964CAD42B105C0F40E94F30D0091E0
:1006F000DE011091DF012091E0013091E101DC0188
:10070000CB01801B910BA20BB30B8093DA0190936A
:10071000DB01A093DC01B093DD010E94F30D609337
:10072000DE017093DF018093E0019093E1010E946C
:10073000F30D6093E2017093E3018093E4019093E1
:10074000E50143E050E06DEA73E080E01F910F9116
:100750000C943B0D1F910F9108950F931F930E94CE
:10076000F30D0091E2011091E3012091E401309139
:10077000E501DC01CB01801B910BA20BB30B813196
:100780009742A105B10598F00E94F30D6093E20134
:100790007093E3018093E4019093E50142E050E01F
:1007A00068E473E080E01F910F910C943B0D1F9162
:1007B0000F910895FC0180818E7F808380818D7FE1
:1007C00080831186128613861486158216821782FC
:1007D0001086118212821382148210A2178E12A226
:1007E00011A214A213A2158A168A178A108E0895D0
:1007F0000F931F93CF93DF93FC01A3A1B4A1109794
:10080000E9F1EC01158A168A178A108E038CF48D93
:10081000E02D309779F1888181FD2CC014960D91DF
:100820001C9115971596DC93CE931497888182605E
:1008300088830995988180FB90F9988388818D7FC2
:100840008883EBA1FCA1158304830E94F30D098129
:100850001A812B813C810D831E832F833887DC0115
:10086000CB01801B910BA20BB30B89879A87AB87B7
:10087000BC8704C0888181608883E7CFDF91CF91F6
:100880001F910F910895CF93DF93EC01411551050E
:100890006105710521F449815A816B817C814D8309
:1008A0005E836F8378870E94F30D69877A878B87D1
:1008B0009C87DF91CF9108950F931F93CF93DF9380
:1008C00000D000D0CDB7DEB78C0149835A836B834B
:1008D0007C830E94F80349815A816B817C81C80125
:1008E0000F900F900F900F90DF91CF911F910F916C
:1008F0000C944304FC01418352836383748340E07E
:1009000050E0BA010C944304EF92FF920F931F93AF
:10091000CF93DF931F92CDB7DEB7DC019C918C9112
:100920008E7F8C938C918D7F8C93892F817090FF1B
:100930001FC05D962D913C915E9721153105C1F048
:100940007D0193960D90BC91A02D14960D911C9154
:1009500015971596FC92EE9214978983F9010995E3
:10096000D7019396ED91FC91949715830483898127
:100970000F90DF91CF911F910F91FF90EF9008950D
:1009800060E087E00E94740F60E088E00E94740FCE
:1009900080E691E00C948404CF93DF93DC01FB01AB
:1009A00083A194A18A179B07D9F0B4A3A3A38D9127
:1009B0009C911197892B31F411967C936E9310A220
:1009C000178E08C01296CD91DC911397D0A3C78FD4
:1009D0007AA369A312A211A21396FC93EE93129725
:1009E000DF91CF9108952F923F924F925F926F9235
:1009F0007F928F929F92AF92CF92DF92EF92FF926F
:100A00000F931F93CF93DF9300D000D0CDB7DEB705
:100A10003C0118012901088D198D49835A836B8384
:100A20007C830E94DA0349815A816B817C81C301F6
:100A30000E947A04F301258636864786508A218AE9
:100A4000328A438A548AF28EE18E948E838E168F78
:100A5000058FC114D10421F0B301C6010E94CC045A
:100A6000AA20C1F0C3010F900F900F900F90DF915B
:100A7000CF911F910F91FF90EF90DF90CF90AF90AB
:100A80009F908F907F906F905F904F903F902F90AE
:100A90000C94F8030F900F900F900F90DF91CF916F
:100AA0001F910F91FF90EF90DF90CF90AF909F90AC
:100AB0008F907F906F905F904F903F902F90089510
:100AC000CF93DF93FB01A78DB0A1C1A1D2A1109755
:100AD00089F4209749F4DC0111961C921E9213961A
:100AE0001C921E9212971EC018A21F8EDC01CD937D
:100AF000DC9316C0209751F492961C921E92919707
:100B0000EC01BB83AA8310A2178E0CC09296DC93D3
:100B1000CE939197C1A1D2A1B8A3AF8F10A2178E87
:100B200012A211A2DF91CF910895CF93DF93EC0130
:100B30000E9484048BA19CA1009729F0BE01DF9143
:100B4000CF910C946005DF91CF9108954F925F9201
:100B50006F927F928F929F92AF92BF92CF92DF92CD
:100B6000EF92FF921F93CF93DF93EC0188819981DD
:100B70009D838C8311E0EC81FD81309709F46BC07B
:100B8000808180FF61C085859685A785B089892B86
:100B90008A2B8B2B21F4CF010E94840455C00E9424
:100BA000F30DEC81FD81C180D280E380F48041842B
:100BB00052846384748485809680A780B084DC012D
:100BC000CB0184199509A609B70988159905AA05C5
:100BD000BB05D0F185859685A785B08918161906BD
:100BE0001A061B065CF485859685A785B089019752
:100BF000A109B10985879687A787B08B85899689D2
:100C0000A789B08D0196A11DB11D858B968BA78BF1
:100C1000B08F458156816781708581859285A385D6
:100C2000B485480F591F6A1F7B1F4187528763870E
:100C30007487C582D682E782F086018CF28DE02D22
:100C4000309711F0099510E0EC81FD8181A192A10E
:100C50009D838C8390CF812FDF91CF911F91FF9047
:100C6000EF90DF90CF90BF90AF909F908F907F904C
:100C70006F905F904F9008959C01269FC001279F21
:100C8000900D369F900D112497FD4F96E5E09595B8
:100C90008795EA95E1F74091100150E0E091060157
:100CA00020E230E0D901A61BB70BEA9F9001EB9F31
:100CB000300D112437FF02C0215E3F4F65E03595AE
:100CC00027956A95E1F7280F391F249FC001259FBA
:100CD000900D349F900D112497FD4F9625E095952A
:100CE00087952A95E1F720E230E0B901641B750B86
:100CF000AB016FEF649F9001659F300D112437FFAA
:100D000002C0215E3F4F95E0359527959A95E1F712
:100D1000820F0895EF92FF920F931F93CF93DF936B
:100D2000C82F8091D501C81708F4C0E0E0900A01EF
:100D3000F0900B01B7018C2F90E00E943C06D82F59
:100D400080910701811101C0C095009108011091A7
:100D50000901B8018C2F90E00E943C06C82FE016D4
:100D6000F1065CF06D2F70E083E00E94B00E809180
:100D7000D601882359F0C0E009C0682F70E083E0F5
:100D80000E94B00E8091D6018111D0E06D2F70E0ED
:100D900089E00E94B00E6C2F70E08AE0DF91CF9165
:100DA0001F910F91FF90EF900C94B00E0E9439119B
:100DB00020910C0130910D0140910E0150910F01D5
:100DC0000E9491100E940A11089586E00E94A40FCB
:100DD00021E0892B09F020E0209307010895AF92CC
:100DE000BF92CF92DF92EF92FF920F931F9381E019
:100DF0000E948F0E2091040130910501265F3F4F24
:100E0000281739076CF081E00E948F0E20910401B1
:100E1000309105012A503109821793070CF053C015
:100E200081E00E948F0EBC01990F880B990B1F92D5
:100E30001F921F9220E12F932DE7A22EB12CC12CDF
:100E4000D12CEE24EA9413E0F12E00E010E020E033
:100E500030E0A9010E94CD0F9B01AC010E94EA1273
:100E600060932701709328018093290190932A01B0
:100E700020910201309103018901330F220B330BC2
:100E80000F900F900F900F906017710782079307D4
:100E900099F081E08093D70140E854E86EE170E07A
:100EA0008BE391E00E945C048091270190912801DE
:100EB000909303018093020181E00E948F0E909332
:100EC0000501809304011F910F91FF90EF90DF9037
:100ED000CF90BF90AF900895AF92BF92CF92DF9224
:100EE000EF92FF920F931F9384E00E948F0EBC013C
:100EF000990F880B990B1F921F921F9224E02F933A
:100F0000A12CB12C650114E8E12E13E0F12E00E0D4
:100F100010E02CE93FEF4FEF5FEF0E94CD0F0F90F5
:100F20000F900F900F90653008F064E06093D90146
:100F30001F910F91FF90EF90DF90CF90BF90AF90F7
:100F40000895AF92BF92CF92DF92EF92FF920F93EC
:100F50001F9380E00E948F0EBC01990F880B990BA4
:100F60001F921F921F9226E62F93A12CB12C650190
:100F7000A394EE24EA9413E0F12E00E010E020E0C8
:100F800030E0A9010E94CD0F70E080E090E00E9467
:100F900039110E94F01120E030E040E851E40E9455
:100FA00048120E940A110F900F900F900F9061321B
:100FB00008F060E2609310011F910F91FF90EF9095
:100FC000DF90CF90BF90AF900895AF92BF92CF9235
:100FD000DF92EF92FF920F931F9385E00E948F0E96
:100FE000BC01633C81E07807B4F5072E000C880B48
:100FF000990B1F921F921F921F9244E6A42EB12CB0
:10100000C12CD12CE12CF12C870122EC31E040E005
:1010100050E00E94CD0F072E000C880B990B0E9408
:101020003B110E94F01120E030E040E851E40E94C2
:1010300048120E9403110F900F900F900F90613291
:10104000710514F060E270E070930B0160930A0187
:1010500080E290E047C0663282E07807ECF180E2FF
:1010600090E090930B0180930A01072E000C880BEF
:10107000990B1F921F921F921F9224E6A22EB12C51
:10108000C12CD12CEE24EA9413E0F12E00E010E004
:1010900026E232E040E050E00E94CD0F072E000C27
:1010A000880B990B0E943B110E94F01120E030E068
:1010B00040E851E40E9448120E9403110F900F90E3
:1010C0000F900F906132710514F060E270E0709340
:1010D0000901609308010AC080E290E090930B013F
:1010E00080930A01909309018093080140910A01BD
:1010F00050910B012091080130910901CA01821B16
:10110000930B97FF03C09195819591098093D50129
:101110008091D601882371F04032510521F0109260
:101120000B0110920A012032310521F010920901C1
:10113000109208011F910F91FF90EF90DF90CF90D8
:10114000BF90AF9008950F931F93CF93DF9383E0E9
:101150000E948F0E2091000130910101265F3F4FC8
:10116000281739076CF083E00E948F0E2091000150
:10117000309101012A503109821793070CF04BC0BE
:1011800083E00E948F0EBC01990F880B990B0E947F
:101190003B1120E030EC4FE754E40E949110EB014A
:1011A000182F092F20E030E040E85DE30E948C100A
:1011B00087FD10C020E030E040E75FE3BE01812FF3
:1011C000902F0E94EB1118164CF4C0E0D0E010E70D
:1011D0000FE304C0C0E0D0E010E80DE3CE01A12F82
:1011E000B02F80931B0190931C01A0931D01B0931D
:1011F0001E0181E08093D70140E854E86EE170E081
:101200008BE391E00E945C0483E00E948F0E909338
:10121000010180930001DF91CF911F910F910895FB
:101220008F929F92AF92BF92CF92DF92EF92FF92F6
:101230006B017C0180910701811104C0220F331FD3
:10124000441F551FCA01B901660F771F881F991FD8
:101250000E9439114B015C01A70196010E944812BE
:101260000E940A1160932301709324018093250149
:1012700090932601A701960160E070E080E89FE36B
:101280000E941F109B01AC01C501B4010E944812CD
:101290000E940A1160931F01709320018093210125
:1012A00090932201FF90EF90DF90CF90BF90AF908E
:1012B0009F908F90089560912701709128018091EF
:1012C000290190912A010E94D6069B01AC016091F0
:1012D0001B0170911C0180911D0190911E010E94C3
:1012E00010094091230150912401609125017091D2
:1012F00026018AEA91E00E947A048AEA91E00C943D
:10130000F803E091D901F0E0EE0FFF1FEF5EFE4F12
:101310008091D8010190F081E02DE80FF11D8491BA
:101320000E948A068091D8018F5F8093D801811135
:101330001CC08091D701882361F0609127017091D2
:1013400028018091290190912A010E945B09109245
:10135000D7014091230150912401609125017091A2
:1013600026018AEA91E00E947A048091D8018038AF
:1013700061F440911F015091200160912101709111
:1013800022018AEA91E00C947A0408958091DA01AE
:101390009091DB01A091DC01B091DD01892B8A2BBA
:1013A0008B2B09F442C08091DA019091DB01A0916E
:1013B000DC01B091DD0181159041A340B105D0F071
:1013C0008091DA019091DB01A091DC01B091DD0107
:1013D00081159A40AD43B10590F48091DA01909166
:1013E000DB01A091DC01B091DD01692F7A2F8B2FF9
:1013F000992709C060E173E080E090E004C069E0F3
:101400007DE380E090E06093270170932801809352
:10141000290190932A010E945B091092DA0110922F
:10142000DB011092DC011092DD010895AF92BF92B2
:10143000CF92DF92EF92FF920F931F93CF93DF93A0
:1014400082E00E948F0EBC01990F880B990B1F92AE
:101450001F921F9226E02F93A12CB12C6501A3941B
:1014600014E8E12E13E0F12E00E010E02AE63FEF51
:101470004FEF5FEF0E94CD0F0F900F900F900F90E6
:10148000161617063CF4EB01673071052CF0C6E028
:10149000D0E002C0C1E0D0E08091340190913501EC
:1014A000C817D90709F444C0C330D105E9F05CF48A
:1014B000C130D105A1F0C230D10561F580E090E0E6
:1014C000A0E8BFE31FC0C530D105C1F094F0C6301D
:1014D000D10501F580E090E0A0E8B0E413C080E021
:1014E00090E0A0E0BFE30EC080E090E0A0ECBFE39E
:1014F00009C080E090E0A0E0B0E404C080E090E0AB
:10150000A0E4B0E480930C0190930D01A0930E0130
:10151000B0930F01609127017091280180912901FA
:1015200090912A010E945B09D0933501C093340148
:10153000DF91CF911F910F91FF90EF90DF90CF90AF
:10154000BF90AF9008958091D701882351F06091AA
:101550002701709128018091290190912A010E9410
:101560005B091092D7018BE391E00C9484040F93F4
:101570001F93CF93F8940E94F30D009130011091C6
:1015800031012091320130913301DC01CB01801B0C
:10159000910BA20BB30B81329E44A105B10530F132
:1015A0008091E601C1E08C278093E6016091E6011D
:1015B00084E00E94740F60E087E00E94740F60E096
:1015C00088E00E94740F6091E6016C2787E00E941A
:1015D000740F6091E60188E00E94740F40E45DE0C2
:1015E00063E070E080E691E00E945C040E94F30DED
:1015F00060933001709331018093320190933301F5
:101600007894CF911F910F910895F89485E00E94EE
:10161000A40F892B09F58091380181110EC08091AA
:101620003701882339F081E08093E6010E94B70AF0
:101630001092370181E08093380181E00E94A40F6D
:10164000892BE1F480913601811118C081E08093EB
:1016500036010E94B70A10C081E00E94A40F2091B9
:10166000E60130E08217930711F40E94B70A81E087
:1016700080933701109238017894089581E00E9498
:10168000A40F0197C9F7809136018823A9F310921E
:101690003601F2CF8091390190913A01019689305B
:1016A00091052CF490933A018093390104C0109273
:1016B0003A0110923901E0913901F0913A01E93093
:1016C000F105B0F4EC5CFF4F0C9419130C94EF0689
:1016D0000C946C070C94A1070C94160A0C94E50763
:1016E0000C94A3080C94E5060C94050B0C94C60905
:1016F0000895CF93DF93CFE1D0E082E00E94A40F62
:10170000892B79F481E00E94A40F892B51F464E6BF
:1017100070E080E090E00E94180E219771F781E060
:1017200001C080E0DF91CF9108950F931F93CF9375
:10173000DF9381E08093D601109206010FE010E064
:10174000C0E0D1E0CD276C2F84E00E94740F6C2F95
:1017500083E00E94740F6C2F89E00E94740F6C2F3D
:101760008AE00E94740F64E670E080E090E00E94DE
:10177000180E0150110931F7DF91CF911F910F9190
:101780000895CF93DF93CEE1D0E081E00E94A40FD3
:10179000892B51F464E670E080E090E00E94180E1E
:1017A000219799F781E001C080E0DF91CF91089502
:1017B000EF92FF920F931F93CF93DF9381E090E01E
:1017C0000E945B13C1E0811101C0C0E061E06C27A1
:1017D00081E090E00E946313D0E02196CC0FDD1FE2
:1017E000CC0FDD1F00E010E0F12CEE24E394FE248A
:1017F0006F2D84E00E94740F64E670E080E090E05A
:101800000E94180E0F5F1F4F0C171D0781F7DF9105
:10181000CF911F910F91FF90EF900895CF93DF9399
:10182000CEE1D0E082E00E94A40F892B51F464E65F
:1018300070E080E090E00E94180E219799F781E017
:1018400001C080E0DF91CF910895CF93DF93EC0149
:10185000219660E083E01C161D06A4F40E94740F1C
:1018600066E970E080E090E00E94180E61E083E09D
:101870000E94740F66E970E080E090E00E94180E0C
:101880002197E7CF0E94740F60E273E080E090E060
:10189000DF91CF910C94180E81E090E00E94250C0E
:1018A00081E090E00E94250C83E090E00E94250CEE
:1018B00060E083E00E94740F60EA7FE080E090E0E7
:1018C0000E94180EE9CF80918100887F816080930B
:1018D000810061E083E00E94380F61E084E00E94B3
:1018E000380F61E087E00E94380F61E088E00E94D5
:1018F000380F62E082E00E94380F62E085E00E94CB
:10190000380F62E086E00E94380F62E081E00E94BA
:10191000380F61E081E00E94740F0E94790B811101
:101920000E94950B0E940E0C81110E944C0C0E948B
:10193000C10B81110E94D80B68EC70E080E090E050
:101940000E94180E81E090E00E945B1391E08111EB
:1019500001C090E09093E6010E94B70A42E050E097
:1019600068E473E080E00E943B0D8AEA91E00E9407
:10197000F80385E891E00C94F8038FEC91E00C9467
:10198000A6058F929F92AF92CF92DF92EF92FF9235
:101990000F931F93EFECF1E01182108213821282F9
:1019A000158214821F921F92812C912CA12C6F0101
:1019B00081E8E82E89E0F82E0FEF1FEF980140E153
:1019C00053E060E070E08AEA91E00E94F3041F9225
:1019D0001F929AE4E92E9BE0F92E0FEF1FEF98017A
:1019E00040EA5FE060E070E085E891E00E94F30487
:1019F0001F921F9220ECE22E24E0F22E0FEF1FEF39
:101A0000980140E050E0BA0180E691E00E94F304C2
:101A10001F921F9233EAE32E3AE0F32E0FEF1FEFEF
:101A2000980140E050E0BA018BE391E00E94F3049A
:101A30008DB79EB708960FB6F8949EBF0FBE8DBFA8
:101A40001F910F91FF90EF90DF90CF90AF909F90FC
:101A50008F9008958BE391E00E94950580E691E0D8
:101A60000E94950585E891E00E9495058AEA91E03B
:101A70000C94950508958230E8F4E82FF0E0EE0F1D
:101A8000FF1FE55DFE4F71836083813041F08091DF
:101A900069008C7F482B40936900E89A08958091F3
:101AA0006900440F551F440F551F837F482B4093F7
:101AB0006900E99A08951F920F920FB60F921124B0
:101AC0002F933F934F935F936F937F938F939F9346
:101AD000AF93BF93EF93FF93E0912B01F0912C0113
:101AE0000995FF91EF91BF91AF919F918F917F9158
:101AF0006F915F914F913F912F910F900FBE0F907B
:101B00001F9018951F920F920FB60F9211242F93CA
:101B10003F934F935F936F937F938F939F93AF9375
:101B2000BF93EF93FF93E0912D01F0912E01099562
:101B3000FF91EF91BF91AF919F918F917F916F91A5
:101B40005F914F913F912F910F900FBE0F901F907B
:101B500018951F920F920FB60F9211242F933F9357
:101B60008F939F93AF93BF938091E8019091E90188
:101B7000A091EA01B091EB013091E70123E0230F3E
:101B80002D3720F40196A11DB11D05C026E8230FB5
:101B90000296A11DB11D2093E7018093E801909367
:101BA000E901A093EA01B093EB018091EC019091DF
:101BB000ED01A091EE01B091EF010196A11DB11DC3
:101BC0008093EC019093ED01A093EE01B093EF01AF
:101BD000BF91AF919F918F913F912F910F900FBE29
:101BE0000F901F9018953FB7F8948091EC01909159
:101BF000ED01A091EE01B091EF0126B5A89B05C0C3
:101C00002F3F19F00196A11DB11D3FBFBA2FA92F7B
:101C1000982F8827820F911DA11DB11DBC01CD01F8
:101C200042E0660F771F881F991F4A95D1F70895E4
:101C30008F929F92AF92BF92CF92DF92EF92FF92DC
:101C40006B017C010E94F30D4B015C01C114D104B6
:101C5000E104F10401F10E941E100E94F30DDC0169
:101C6000CB0188199909AA09BB09883E9340A105AF
:101C7000B10560F321E0C21AD108E108F10888EE4D
:101C8000880E83E0981EA11CB11CC114D104E1048C
:101C9000F10419F7DBCFFF90EF90DF90CF90BF906A
:101CA000AF909F908F900895789484B5826084BDA2
:101CB00084B5816084BD85B5826085BD85B5816050
:101CC00085BDEEE6F0E0808181608083E1E8F0E0B0
:101CD0001082808182608083808181608083E0E8DF
:101CE000F0E0808181608083E1EBF0E080818460BE
:101CF0008083E0EBF0E0808181608083EAE7F0E0C0
:101D00008081846080838081826080838081816023
:101D100080838081806880831092C100089588301C
:101D200028F08E3010F08E5001C08FEF8770209118
:101D30002F0190E4299F90011124822B80937C0035
:101D400080917A00806480937A0080917A0086FD89
:101D5000FCCF809178002091790090E0922B08953B
:101D60001F93CF93DF93182FEB0161E00E94380F90
:101D7000209711F460E004C0CF3FD10539F461E051
:101D8000812FDF91CF911F910C94740FE12FF0E020
:101D9000EC52FA4FE491E330F9F048F4E130B9F055
:101DA000E230A1F584B5806284BDC8BD34C0E7309F
:101DB000E9F0E83019F1E43049F580918000806263
:101DC00080938000D0938B00C0938A0024C084B598
:101DD000806884BDC7BD1FC08091800080688093EB
:101DE0008000D0938900C093880015C08091B00016
:101DF00080688093B000C093B3000DC08091B000A4
:101E000080628093B000C093B40005C0C038D10593
:101E10000CF0B5CFAFCFDF91CF911F9108958330F4
:101E200081F028F4813099F08230A1F00895873054
:101E3000A9F08830B9F08430D1F4809180008F7D92
:101E400003C0809180008F7780938000089584B5CF
:101E50008F7702C084B58F7D84BD08958091B000D6
:101E60008F7703C08091B0008F7D8093B00008957C
:101E7000CF93DF9390E0FC01E551FA4F2491FC01F0
:101E8000EE5FF94F8491882361F190E0880F991FEC
:101E9000FC01E35DF94FC591D491FC01ED5DF94F73
:101EA000A591B491611109C09FB7F89488812095DC
:101EB00082238883EC912E230BC0623061F49FB79C
:101EC000F8943881822F809583238883EC912E2B80
:101ED0002C939FBF06C08FB7F894E8812E2B2883E0
:101EE0008FBFDF91CF9108951F93CF93DF93282F5A
:101EF00030E0F901EC52FA4F8491F901E551FA4FC3
:101F0000D491F901EE5FF94FC491CC23C9F0162F9B
:101F100081110E940F0FEC2FF0E0EE0FFF1FED5D1F
:101F2000F94FA591B4918FB7F894111105C09C9108
:101F3000ED2FE095E92302C0EC91ED2BEC938FBFE0
:101F4000DF91CF911F910895CF93DF93282F30E039
:101F5000F901EC52FA4F8491F901E551FA4FD4910D
:101F6000F901EE5FF94FC491CC2391F081110E94E9
:101F70000F0FEC2FF0E0EE0FFF1FE75EF94FA5917A
:101F8000B491EC91ED2381E090E021F480E002C077
:101F900080E090E0DF91CF9108954F925F926F9231
:101FA0007F92AF92BF92CF92DF92EF92FF920F9308
:101FB0001F93CF93DF93CDB7DEB729013A019B0181
:101FC000AC01241935094609570989899A89AB89D1
:101FD000BC89BC01CD016A197B098C099D090E944D
:101FE000EA12A801970124193509460957090E94E8
:101FF000FA12CA01B9016A0D7B1D8C1D9D1DDF916E
:10200000CF911F910F91FF90EF90DF90CF90BF90F5
:10201000AF907F906F905F904F90089508950E94C9
:10202000540E0E940E100E94630CC0E0D0E00E948B
:10203000BD0C2097E1F30E940000F9CF089550589D
:10204000BB27AA270E9437100C94B1110E94A3113C
:1020500038F00E94AA1120F039F49F3F19F426F4B9
:102060000C94A0110EF4E095E7FB0C949A11E92F63
:102070000E94C21158F3BA176207730784079507C5
:1020800020F079F4A6F50C94E4110EF4E0950B2EF3
:10209000BA2FA02D0B01B90190010C01CA01A001BA
:1020A0001124FF27591B99F0593F50F4503E68F115
:1020B0001A16F040A22F232F342F4427585FF3CF56
:1020C000469537952795A795F0405395C9F77EF427
:1020D0001F16BA0B620B730B840BBAF09150A1F070
:1020E000FF0FBB1F661F771F881FC2F70EC0BA0FF6
:1020F000621F731F841F48F4879577956795B7957E
:10210000F7959E3F08F0B0CF9395880F08F0992778
:10211000EE0F9795879508950E94761108F481E057
:1021200008950E94A5100C94B1110E94AA1158F0B4
:102130000E94A31140F029F45F3F29F00C949A11FA
:1021400051110C94E5110C94A0110E94C21168F376
:102150009923B1F3552391F3951B550BBB27AA2760
:1021600062177307840738F09F5F5F4F220F331F9A
:10217000441FAA1FA9F335D00E2E3AF0E0E832D062
:1021800091505040E695001CCAF72BD0FE2F29D065
:10219000660F771F881FBB1F261737074807AB0737
:1021A000B0E809F0BB0B802DBF01FF2793585F4FAC
:1021B0003AF09E3F510578F00C949A110C94E51179
:1021C0005F3FE4F3983ED4F3869577956795B7958E
:1021D000F7959F5FC9F7880F911D9695879597F999
:1021E0000895E1E0660F771F881FBB1F6217730712
:1021F0008407BA0720F0621B730B840BBA0BEE1F27
:1022000088F7E09508950E940A116894B1110C9422
:10221000E51108950E94CA1188F09F5798F0B92FD0
:102220009927B751B0F0E1F0660F771F881F991F0B
:102230001AF0BA95C9F714C0B13091F00E94E411B8
:10224000B1E008950C94E411672F782F8827B85FC8
:1022500039F0B93FCCF3869577956795B395D9F763
:102260003EF490958095709561957F4F8F4F9F4F6D
:102270000895E89409C097FB3EF490958095709579
:1022800061957F4F8F4F9F4F9923A9F0F92F96E9C2
:10229000BB279395F695879577956795B795F11137
:1022A000F8CFFAF4BB0F11F460FF1BC06F5F7F4FD4
:1022B0008F4F9F4F16C0882311F096E911C07723E6
:1022C00021F09EE8872F762F05C0662371F096E8EF
:1022D000862F70E060E02AF09A95660F771F881FBE
:1022E000DAF7880F9695879597F90895990F000862
:1022F000550FAA0BE0E8FEEF16161706E807F907D8
:10230000C0F012161306E407F50798F0621B730B72
:10231000840B950B39F40A2661F0232B242B252BF3
:1023200021F408950A2609F4A140A6958FEF811D96
:10233000811D089597F99F6780E870E060E0089537
:102340009FEF80EC089500240A94161617061806CD
:102350000906089500240A941216130614060506A9
:102360000895092E0394000C11F4882352F0BB0F3A
:1023700040F4BF2B11F460FF04C06F5F7F4F8F4F9D
:102380009F4F089557FD9058440F551F59F05F3FD8
:1023900071F04795880F97FB991F61F09F3F79F087
:1023A00087950895121613061406551FF2CF469509
:1023B000F1DF08C0161617061806991FF1CF86958B
:1023C0007105610508940895E894BB27662777276F
:1023D000CB0197F908950E94761108F48FEF0895C4
:1023E0000E94001229ED3BE54EED5EE30C9448128D
:1023F00016F00C94B5120C94A01168940C949A11D8
:102400000E94CA11A8F39923C1F3AEF3DF93CF93CF
:102410001F930F93FF92C92FDD2788232AF021975E
:10242000660F771F881FDAF720E030E040E85FEBA7
:102430009FE3883920F0803E38F021968F770E9404
:102440002010EAE7F0E004C00E942010E7EAF0E084
:102450000E94C3128B01BE01EC01FB2E6F57710964
:102460007595771F880B990B0E943B1128E132E785
:1024700041E35FE30E945B12AF2D9801AE01FF9034
:102480000F911F91CF91DF910E9437100C94B111E1
:102490000E945B120C94B1110E94A31138F00E94AB
:1024A000AA1120F0952311F00C949A110C94A0110C
:1024B00011240C94E5110E94C21170F3959FC1F391
:1024C000950F50E0551F629FF001729FBB27F00DE2
:1024D000B11D639FAA27F00DB11DAA1F649F662737
:1024E000B00DA11D661F829F2227B00DA11D621F86
:1024F000739FB00DA11D621F839FA00D611D221F40
:10250000749F3327A00D611D231F849F600D211D23
:10251000822F762F6A2F11249F5750409AF0F1F0A6
:1025200088234AF0EE0FFF1FBB1F661F771F881F0F
:1025300091505040A9F79E3F510580F00C949A119C
:102540000C94E5115F3FE4F3983ED4F386957795BC
:102550006795B795F795E7959F5FC1F7FE2B880FB5
:10256000911D9695879597F908959F3F31F0915069
:1025700020F4879577956795B795880F911D969567
:10258000879597F90895DF93CF931F930F93FF9249
:10259000EF92DF927B018C01689406C0DA2EEF0186
:1025A0000E945B12FE01E894A59125913591459119
:1025B0005591A6F3EF010E943710FE019701A80183
:1025C000DA9469F7DF90EF90FF900F911F91CF9110
:1025D000DF910895DB018F939F930E941F13BF919A
:1025E000AF91A29F800D911DA39F900DB29F900D62
:1025F00011240895052E97FB1EF400940E941113D8
:1026000057FD07D00E942A1307FC03D04EF40C9408
:10261000111350954095309521953F4F4F4F5F4F87
:10262000089590958095709561957F4F8F4F9F4F3E
:102630000895EE0FFF1F0590F491E02D09940E947C
:102640004C13A59F900DB49F900DA49F800D911DDC
:1026500011240895A1E21A2EAA1BBB1BFD010DC077
:10266000AA1FBB1FEE1FFF1FA217B307E407F50742
:1026700020F0A21BB30BE40BF50B661F771F881F1E
:10268000991F1A9469F760957095809590959B01B4
:10269000AC01BD01CF010895A29FB001B39FC0015D
:1026A000A39F700D811D1124911DB29F700D811D7E
:1026B0001124911D0895F999FECF92BD81BDF89A1C
:1026C000992780B50895262FF999FECF1FBA92BD9C
:1026D00081BD20BD0FB6F894FA9AF99A0FBE019603
:1026E000089513E0CDE1D3E004C0FE010E94191368
:0C26F0002196CE31D107C9F7F894FFCF36
:1026FC00F6FFFFFFF5FFFF01100010000000803F08
:10270C0010D402D403D404D400D4010000003FC47C
:10271C00000000C4000000C40000003A0D3A0D0196
:00000001FF
