:100000000C942E030C9438060C9411060C94560391
:100010000C9456030C9456030C9456030C945603FC
:100020000C9456030C9456030C9456030C945603EC
:100030000C9456030C9456030C9456030C945603DC
:100040000C94EE160C9456030C9485060C945F06E3
:100050000C9456030C9456030C9456030C945603BC
:100060000C9456030C9456032E088008BB08FE0817
:1000700099095F0ABD0AE40A370B13128912531259
:1000800036128E138E1308128E1308128E13081256
:10009000081208128E130812081208000000BE92FF
:1000A0002449123EABAAAA2ABECDCCCC4C3E0000BD
:1000B0000080BEABAAAAAA3E00000000BF0000005C
:1000C000803F0000000000084178D3BB4387D11374
:1000D0003D190E3CC3BD4282AD2B3E68EC8276BE1C
:1000E000D98FE1A93E4C80EFFFBE01C4FF7F3F00E6
:1000F00000000000FFFFFFFFFFFFFFFFFFFFFFFF0C
:10010000FFFFFFFFFFFFFFFFFFFFFFFFFFFFFFFFFF
:10011000FFFFFFFFFFFFFFFFFFFFFFFFFFFFFFFFEF
:10012000FFFFFFFFFFFFFFFFFFFFFFFFFFFFFFFFDF
:10013000FFFFFFFFFFFFFFFFFFFFFFFFFFFFFFFFCF
:10014000FFFFFFFFFFFFFFFFFFFFFFFFFFFFFFFFBF
:10015000FFFFFFFFFFFFFFFFFFFFFFFFFFFFFFFFAF
:10016000FFFFFFFFFFFFFFFFFFFFFFFFFFFFFFFF9F
:10017000FFFFFFFF00000000000000000000000083
:10018000000000000000000000000000000000006F
:10019000000000000000000000000000000000005F
:1001A000000000000000000000000000000000004F
:1001B000000000000000000000000000000000003F
:1001C000000000000000000000000000000000002F
:1001D000000000000000000000000000000000001F
:1001E000000000000000000000000000000000000F
:1001F0000000000080828486888A8C8E909294967B
:10020000989A9C9EA0A2A4A6A8AAACAEB0B2B4B67E
:10021000B8BABCBEC0C2C4C6C8CACCCED0D2D4D66E
:10022000D8DADCDEE0E2E4E6E8EAECEEF0F2F4F65E
:10023000F8FAFCFEFFFDFBF9F7F5F3F1EFEDEBE962
:10024000E7E5E3E1DFDDDBD9D7D5D3D1CFCDCBC92E
:10025000C7C5C3C1BFBDBBB9B7B5B3B1AFADABA91E
:10026000A7A5A3A19F9D9B99979593918F8D8B890E
:10027000878583817F7D7B79777573716F6D6B69FE
:10028000676563615F5D5B59575553514F4D4B49EE
:10029000474543413F3D3B39373533312F2D2B29DE
:1002A000272523211F1D1B19171513110F0D0B09CE
:1002B0000705030100020406080A0C0E10121416AA
:1002C000181A1C1E20222426282A2C2E30323436BE
:1002D000383A3C3E40424446484A4C4E50525456AE
:1002E000585A5C5E60626466686A6C6E707274769E
:1002F000787A7C7E000102030405060708090A0BD0
:100300000C0D0E0F101112131415161718191A1BB5
:100310001C1D1E1F202122232425262728292A2BA5
:100320002C2D2E2F303132333435363738393A3B95
:100330003C3D3E3F404142434445464748494A4B85
:100340004C4D4E4F505152535455565758595A5B75
:100350005C5D5E5F606162636465666768696A6B65
:100360006C6D6E6F707172737475767778797A7B55
:100370007C7D7E7F808182838485868788898A8B45
:100380008C8D8E8F909192939495969798999A9B35
:100390009C9D9E9FA0A1A2A3A4A5A6A7A8A9AAAB25
:1003A000ACADAEAFB0B1B2B3B4B5B6B7B8B9BABB15
:1003B000BCBDBEBFC0C1C2C3C4C5C6C7C8C9CACB05
:1003C000CCCDCECFD0D1D2D3D4D5D6D7D8D9DADBF5
:1003D000DCDDDEDFE0E1E2E3E4E5E6E7E8E9EAEBE5
:1003E000ECEDEEEFF0F1F2F3F4F5F6F7F8F9FAFBD5
:1003F000FCFDFEFFFFFEFDFCFBFAF9F8F7F6F5F455
:10040000F3F2F1F0EFEEEDECEBEAE9E8E7E6E5E434
:10041000E3E2E1E0DFDEDDDCDBDAD9D8D7D6D5D424
:10042000D3D2D1D0CFCECDCCCBCAC9C8C7C6C5C414
:10043000C3C2C1C0BFBEBDBCBBBAB9B8B7B6B5B404
:10044000B3B2B1B0AFAEADACABAAA9A8A7A6A5A4F4
:10045000A3A2A1A09F9E9D9C9B9A999897969594E4
:10046000939291908F8E8D8C8B8A898887868584D4
:10047000838281807F7E7D7C7B7A797877767574C4
:10048000737271706F6E6D6C6B6A696867666564B4
:10049000636261605F5E5D5C5B5A595857565554A4
:1004A000535251504F4E4D4C4B4A49484746454494
:1004B000434241403F3E3D3C3B3A39383736353484
:1004C000333231302F2E2D2C2B2A29282726252474
:1004D000232221201F1E1D1C1B1A19181716151464
:1004E000131211100F0E0D0C0B0A09080706050454
:1004F00003020100FFFFFFFFFEFEFDFDFCFBFBFA18
:10050000F9F8F7F5F4F3F1F0EEEDEBE9E8E6E4E203
:10051000E0DEDBD9D7D5D2D0CDCBC8C6C3C0BDBBFA
:10052000B8B5B2AFACA9A6A3A09D9A9794918E8BB3
:100530008784817E7B7874716E6B6865625F5C59BD
:100540005653504D4A4744423F3C393734322F2DA1
:100550002A282624211F1D1B1917161412110F0EED
:100560000C0B0A080706050404030202010100003F
:100570000000000000000000010102020304050663
:100580000708090A0C0D0E1011131517181A1C1E56
:1005900020232527292C2E303336383B3D40434637
:1005A000494B4E5154575A5D6063666A6D7073765D
:1005B000797C7F808386898C8F9295999C9FA2A558
:1005C000A8ABAEB1B4B6B9BCBFC2C4C7C9CCCFD159
:1005D000D3D6D8DADCDFE1E3E5E7E8EAECEEEFF1E9
:1005E000F2F3F5F6F7F8F9FAFBFCFDFDFEFEFFFF6E
:1005F000FFFFFFFF00000000240027002A0000008A
:100600000000250028002B00000000002300260029
:100610002900040404040404040402020202020285
:100620000303030303030202030102040810204032
:1006300080010204081020010204081020408040BC
:100640000000000800020100000304070000000091
:100650000000000000000000E7195E1711241FBE13
:10066000CFEFD8E0DEBFCDBF11E0A0E0B1E0EAEC13
:10067000FCE302C005900D92A035B107D9F724E044
:10068000A0E5B1E001C01D92A132B207E1F713E08D
:10069000CDE2D3E004C02197FE010E943E1ECC3281
:1006A000D107C9F70E947E170C94581E0C940000C5
:1006B0000895CF92DF92EF92FF920F931F93CF9303
:1006C000DF936C017A018B01C0E0D0E0CE15DF052D
:1006D00081F0D8016D918D01D601ED91FC910190D1
:1006E000F081E02DC6010995892B11F02196EECFFE
:1006F0007E01C701DF91CF911F910F91FF90EF9085
:10070000DF90CF900895089580E090E00895FC0177
:10071000538D448D252F30E0842F90E0821B930B66
:10072000541710F0CF96089501970895FC01918D0C
:10073000828D981761F0828DDF01A80FB11D5D9643
:100740008C91928D9F5F9F73928F90E008958FEFB1
:100750009FEF0895FC01918D828D981731F0828D65
:10076000E80FF11D858D90E008958FEF9FEF0895BC
:10077000FC01918D228D892F90E0805C9F4F821B20
:1007800091098F739927089580EC92E00E94B80335
:1007900021E0892B09F420E0822F0895FC01848D4B
:1007A000DF01A80FB11DA35ABF4F2C91848D90E09B
:1007B00001968F739927848FA689B7892C93A08976
:1007C000B1898C91837080648C93938D848D981300
:1007D00006C00288F389E02D80818F7D8083089593
:1007E000EF92FF920F931F93CF93DF93EC0181E081
:1007F000888F9B8D8C8D981305C0E889F98980813D
:1008000085FD26C0F62E0B8D10E00F5F1F4F0F7376
:100810001127E02E8C8DE8120CC00FB607FCFACF22
:10082000E889F989808185FFF5CFCE010E94CE034A
:10083000F1CF8B8DFE01E80FF11DE35AFF4FF082DF
:100840009FB7F8940B8FEA89FB89808180620AC088
:100850009FB7F894EE89FF896083E889F9898081E0
:100860008370806480839FBF81E090E0DF91CF91AF
:100870001F910F91FF90EF900895CF93DF93EC01BC
:10088000888D8823C9F0EA89FB89808185FD05C0B0
:10089000A889B9898C9186FD0FC00FB607FCF5CFEA
:1008A000808185FFF2CFA889B9898C9185FFEDCF32
:1008B000CE010E94CE03E7CFDF91CF91089580E073
:1008C00090E0892B29F00E94C40381110C94000050
:1008D00008950F931F930E942116009174011091A7
:1008E00075012091760130917701DC01CB01801BED
:1008F000910BA20BB30B81319742A105B10590F08A
:100900000E942116609374017093750180937601A3
:100910009093770162E070E085E994E01F910F9178
:100920000C94AA141F910F9108950F931F930E9486
:10093000211600917401109175012091760130917A
:100940007701DC01CB01801B910BA20BB30B813132
:100950009742A105B10508F449C00E9421160091F3
:100960005401109155012091560130915701DC013D
:10097000CB01801B910BA20BB30B803C964CAD427C
:10098000B105C0F40E942116009154011091550147
:100990002091560130915701DC01CB01801B910B56
:1009A000A20BB30B8093500190935101A09352017D
:1009B000B09353010E942116609354017093550126
:1009C00080935601909357010E9421166093740101
:1009D00070937501809376019093770163E070E0E6
:1009E00089E694E01F910F910C94AA141F910F9126
:1009F000089561E08BE00E943C1581E092E00C9448
:100A000095130E94531ECF9380917301C1E08C27F0
:100A1000809373016091730184E00E943C1560E053
:100A200087E00E943C1560E088E00E943C156091E0
:100A300073016C2787E00E943C156091730188E088
:100A40000E943C1540E45FE160E070E086E292E0E5
:100A50000E940E148BE492E0CF910C94951360E009
:100A600087E00E943C1560E088E00E943C1548E861
:100A700053E160E070E081E092E00E940E1486E2B3
:100A800092E00C9495134F925F926F927F928F92A7
:100A90009F92AF92BF92CF92DF92EF92FF920F930D
:100AA0001F93CF93DF93C1E0C0936C01D0917C0181
:100AB0006D2F84E00E943C15CD27C0937C0181E01E
:100AC0000E941315019709F09BC0C0911901D091A4
:100AD0001A01219760E084E00E943C1568EE73E003
:100AE00080E090E00E94B4164090140150901501EF
:100AF000609016017090170190916B018090100129
:100B000090901101A0901201B0901301C0900C01BF
:100B1000D0900D01E0900E01F0900F0140910A017C
:100B200050910B01209108013091090180911C0125
:100B300060911801609358014092590150925A01F6
:100B400060925B0170925C0190935D0180925E0106
:100B500090925F01A0926001B0926101C092620127
:100B6000D0926301E0926401F092650150936701B5
:100B700040936601309369012093680180936A0174
:100B800083E18C9FB0018D9F700D1124665F7F4FB4
:100B900043E150E088E591E00E94E81A00E010E0AF
:100BA000C017D107BCF061E084E00E943C1560E909
:100BB00071E080E090E00E94B41660E084E00E9462
:100BC0003C1560E971E080E090E00E94B4160F5F90
:100BD0001F4FE6CF10926C0187EB91E0DF91CF9130
:100BE0001F910F91FF90EF90DF90CF90BF90AF904B
:100BF0009F908F907F906F905F904F900C94951383
:100C0000DF91CF911F910F91FF90EF90DF90CF90E8
:100C1000BF90AF909F908F907F906F905F904F901C
:100C200008951F920F920FB60F9211242F933F93A6
:100C30004F935F936F937F938F939F93AF93BF93E4
:100C4000EF93FF93E0913101F09132010995FF910B
:100C5000EF91BF91AF919F918F917F916F915F9134
:100C60004F913F912F910F900FBE0F901F901895AD
:100C70001F920F920FB60F9211242F933F934F9311
:100C80005F936F937F938F939F93AF93BF93EF93F4
:100C9000FF93E0912F01F09130010995FF91EF91C1
:100CA000BF91AF919F918F917F916F915F914F9184
:100CB0003F912F910F900FBE0F901F9018951F928C
:100CC0000F920FB60F9211242F933F934F935F9380
:100CD0006F937F938F939F93AF93BF93EF93FF9304
:100CE00080EC92E00E94CE03FF91EF91BF91AF9113
:100CF0009F918F917F916F915F914F913F912F9134
:100D00000F900FBE0F901F9018951F920F920FB665
:100D10000F9211242F938F939F93EF93FF93E09162
:100D2000D002F091D1028081E091D602F091D702F9
:100D300082FD12C090818091D9028F5F8F732091C4
:100D4000DA02821751F0E091D902F0E0E054FD4F51
:100D5000958F8093D90201C08081FF91EF919F917F
:100D60008F912F910F900FBE0F901F9018956D3F90
:100D7000710538F46A3F710550F4683F710589F4D4
:100D800006C09B012E5F31092230310550F4DC0191
:100D90008D919C91DC01ED91FC910190F081E02D11
:100DA0000994089587FF0DC09CE0980F923048F099
:100DB000982F9B7F993F29F0803F08F4807F90E037
:100DC000089580E090E008959C018F7C8038910523
:100DD00061F0203D310549F081E0203E310539F0D8
:100DE000203C310521F080E0089581E008950895C8
:100DF0000F931F93F8940E9421160091780110918F
:100E0000790120917A0130917B01DC01CB01801BBB
:100E1000910BA20BB30B893A9146A105B10560F085
:100E200060E08BE00E943C1548EA51E660E070E02B
:100E30008BE492E00E940E140E94211660937801C8
:100E40007093790180937A0190937B0178941F913C
:100E50000F91089580917101811102C00E94F806DE
:100E600082E991E00C9495138F929F92AF92BF927A
:100E7000CF92DF92EF92FF926B017C0180911C0177
:100E8000811104C0220F331F441F551FCA01B9012D
:100E9000660F771F881F991F0E947D1C4B015C0104
:100EA000A70196010E948C1D0E944E1C60930401B4
:100EB000709305018093060190930701A7019601A5
:100EC00060E070E080E89FE30E94631BA50194014D
:100ED0000E948C1D0E944E1C6093000170930101C2
:100EE0008093020190930301FF90EF90DF90CF90E9
:100EF000BF90AF909F908F90089560911001709176
:100F0000110180911201909113010E947D1C20918A
:100F100014013091150140911601509117010E9462
:100F2000D51B0E944E1C9B01AC0160910C0170917D
:100F30000D0180910E0190910F010E94340785E907
:100F400092E00C94C3139C01269FC001279F900D33
:100F5000369F900D112497FD4F96E5E09595879566
:100F6000EA95E1F74091180150E0E0911B0120E281
:100F700030E0D901A61BB70BEA9F9001EB9F300D23
:100F8000112437FF02C0215E3F4F75E0359527954C
:100F90007A95E1F7820F931F849F9001859F300D12
:100FA000949F300D112437FF02C0215E3F4F65E052
:100FB000359527956A95E1F780E290E0BC01641BC6
:100FC000750BAB016FEF649FC001659F900D1124FD
:100FD00097FD4F9635E0959587953A95E1F7820F05
:100FE00008958091730141110AC0882351F040E2B5
:100FF0005EE460E070E082E991E00C940E148823D6
:10100000B1F3089580918001882321F085E992E071
:101010000C9495130895CF92DF92EF92FF92CF93A5
:10102000DF9380918E0190918F0101968930910517
:101030002CF490938F0180938E0104C010928F0145
:1010400010928E01E0918E01F0918F01E930F1054F
:1010500008F08AC3EC5CFF4F0C943E1E81E00E94B6
:101060000616EC0180911F01909120019C01275FE1
:101070003F4F2C173D072CF00997C817D9070CF0E4
:1010800073C39E01A3E9BFEF0E94441E2FEF33E01C
:1010900040E050E00E94001BCA01B90163587F4F35
:1010A0008F4F9F4F9B01AC010E942E1E6093100139
:1010B000709311018093120190931301C0901D0150
:1010C000D0901E010D2C000CEE08FF086C157D055C
:1010D0008E059F0551F00E947D078091100190912F
:1010E000110190931E0180931D0188E190E090937F
:1010F0002C0180932B01D0932001C0931F0134C396
:1011000084E00E940616EC01809121019091220159
:101110009C01275F3F4F2C173D072CF00997C817FC
:10112000D9070CF021C3CE010D2E000CAA0BBB0B6E
:101130008C599F4FAF4FBF4FBC01CD0152E0660F9E
:10114000771F881F991F5A95D1F728EE33E040E0AA
:1011500050E00E94001B253008F024E020936B0132
:1011600086E190E090932C0180932B01D093220193
:10117000C0932101F9C280E00E940616EC01809123
:101180002301909124019C01275F3F4F2C173D07BD
:101190002CF00997C817D9070CF0E6C225E630E015
:1011A000DE010E944C1E2FEF33E040E050E00E9431
:1011B000001BDA01C9010196A11DB11D682F70E065
:1011C00080E090E00E947D1C0E94341D20E030E011
:1011D00040E851E40E948C1D0E944E1C613208F0D0
:1011E00060E26093180184E190E090932C01809379
:1011F0002B01D0932401C0932301B6C282E00E9448
:101200000616EC0180912701909128019C01275F2F
:101210003F4F2C173D072CF00997C817D9070CF042
:10122000A3C2CE010D2E000CAA0BBB0B9C01AD017D
:101230002A563F4F4F4F5F4FA5E0B0E00E941F1B63
:101240002AE134E040E050E00E94001BDA01C901CD
:101250000196A11DB11D1816190634F49C010797BB
:101260002CF026E030E002C021E030E030931A019B
:1012700020931901809125019091260128173907A3
:1012800009F44CC080916C01811148C023303105B4
:10129000E9F05CF421303105A1F02230310561F52F
:1012A00080E090E0A0E8BFE31FC025303105C1F029
:1012B00094F02630310501F580E090E0A0E8B0E43C
:1012C00013C080E090E0A0E0BFE30EC080E090E0BB
:1012D000A0ECBFE309C080E090E0A0E0B0E404C06F
:1012E00080E090E0A0E4B0E48093140190931501B5
:1012F000A0931601B0931701609110017091110134
:1013000080911201909113010E947D078091190133
:1013100090911A01909326018093250185E190E038
:1013200090932C0180932B01D0932801C093270127
:101330001BC285E00E940616EC0180912901909164
:101340002A019C01275F3F4F2C173D072CF009977E
:10135000C817D9070CF008C2C33C21E0D207BCF57E
:10136000CE010D2E000CAA0BBB0B9C01AD01225C23
:10137000314041095109ACE9BFEF0E942D1B2EE31A
:101380003EEF4FEF5FEF0E94001BDA01C9018C595D
:101390009F4FAF4FBF4FBC01990F880B990B0E9415
:1013A0007F1C0E94341D20E030E040E851E40E94A0
:1013B0008C1D0E94471C6132710514F060E270E0E0
:1013C00070930B0160930A0180E290E045C0C63241
:1013D00082E0D807DCF180E290E090930B018093EB
:1013E0000A01CE010D2E000CAA0BBB0B9C01AD0116
:1013F0002652324041095109ACE9BFEF0E942D1B32
:1014000029ED31E040E050E00E94001BDA01C90103
:101410008C599F4FAF4FBF4FBC01990F880B990B51
:101420000E947F1C0E94341D20E030E040E851E41F
:101430000E948C1D0E94471C6132710514F060E20D
:1014400070E070930901609308010AC080E290E0A7
:1014500090930B0180930A019093090180930801F6
:1014600040910A0150910B0120910801309109012E
:10147000CA01821B930B97FF03C091958195910937
:101480008093820180916E01882371F04032510572
:1014900021F010920B0110920A012032310521F047
:1014A00010920901109208018AE190E090932C01BA
:1014B00080932B01D0932A01C093290155C183E069
:1014C0000E940616EC0180912D0190912E019C0145
:1014D000275F3F4F2C173D072CF00997C817D907F6
:1014E0000CF042C1BE010D2E000C880B990B0E941E
:1014F0007F1C20E030EC4FE754E40E94D51B6B01C9
:101500007C0120E030E040E85DE30E94D01B87FDD5
:1015100011C020E030E040E75FE3C701B6010E9460
:101520002F1D18166CF4C12CD12C30E7E32E3FE3AD
:10153000F32E06C0C12CD12C40E8E42E4DE3F42E4E
:10154000C0920C01D0920D01E0920E01F0920F01B9
:10155000609110017091110180911201909113011D
:101560000E947D0789E190E090932C0180932B01EC
:10157000D0932E01C0932D01F7C080918401811179
:101580000CC086E00E94131521E0892B09F020E0B1
:101590002093830181E08093840186E00E941315EB
:1015A000AC0191E04115510509F490E0809183016F
:1015B000981709F4D9C021E0452B09F020E02093C9
:1015C0001C0190938301D0C085E00E941315C1E0F7
:1015D000009709F4C0E020918C01C21711F120910D
:1015E0006C0121111EC0F894892B99F4809172012D
:1015F000811114C080917101882339F081E08093BA
:1016000073010E94F8061092710181E080937201CB
:1016100005C081E080937101109272017894C093AB
:101620008C0185E00E94131580917201882379F066
:1016300080916C0181110BC081E00E941315892BF0
:1016400009F065C080918D01811161C06AC08091EF
:101650007101882309F488C081E00E94131520914C
:10166000730130E08217930709F07EC065C0809156
:10167000500190915101A0915201B0915301892BD9
:101680008A2B8B2B09F470C08091500190915101ED
:10169000A0915201B091530181159041A340B10531
:1016A000D0F08091500190915101A0915201B091E0
:1016B000530181159A40AD43B10590F480915001DA
:1016C00090915101A0915201B0915301692F7A2F4D
:1016D0008B2F992709C060E173E080E090E004C09F
:1016E00069E07DE380E090E0609310017093110168
:1016F00080931201909313010E947D071092500174
:101700001092510110925201109253012DC081E0AC
:101710000E941315019741F580918D01811114C02C
:1017200023C081E080938D0140E45BE46CE470E0D1
:1017300087EB91E00E940E14DF91CF91FF90EF9024
:10174000DF90CF900C94F80610928D0180916C017F
:1017500081110AC087EB91E0DF91CF91FF90EF906C
:10176000DF90CF900C949513DF91CF91FF90EF9085
:10177000DF90CF9008950F931F9380917E019091F9
:101780007F01019690937F0180937E0120918001DB
:101790002223E9F14897DCF10E94211600915401BF
:1017A000109155012091560130915701DC01CB0178
:1017B000801B910BA20BB30B803C964CAD42B10544
:1017C000C0F40E94211600915401109155012091FE
:1017D000560130915701DC01CB01801B910BA20B0C
:1017E000B30B8093500190935101A0935201B09399
:1017F00053010E9421166093540170935501809308
:1018000056019093570110927F0110927E011F9113
:101810000F910895CF92DF92EF92FF921F93CF9393
:10182000DF93D0918101E0916B01F0E0EE0FFF1F9B
:10183000ED5CFE4F0190F081E02DED0FF11DC491A4
:1018400080918201C81708F4C0E0C0900A01D090CE
:101850000B01B6018C2F90E00E94A307182F8091F6
:101860001C01811101C0C095E0900801F0900901B0
:10187000B7018C2F90E00E94A307C82FCE14DF047D
:101880005CF0612F70E083E00E94A71580916E01EB
:10189000882359F0C0E009C0682F70E083E00E94FF
:1018A000A71580916E01811110E0612F70E089E031
:1018B0000E94A7156C2F70E08AE00E94A71581E0B6
:1018C0008D0F809381019091800187FD0DC0992338
:1018D00011F0811137C08091040190910501A09110
:1018E0000601B09107010CC0992311F0803851F521
:1018F0008091000190910101A0910201B09103013A
:101900008093960290939702A0939802B0939902C5
:101910008091960290919702A0919802B0919902BD
:1019200080939A0290939B02A0939C02B0939D0295
:101930000E94211660939E0270939F028093A002E2
:101940009093A102DF91CF911F91FF90EF90DF90D4
:10195000CF90089580918001882321F085E992E05D
:101960000C94C313089580918001882309F44EC01C
:1019700010927F0110927E010E9421166093540103
:1019800070935501809356019093570180917D018A
:10199000882361F080E8809381018091000190911B
:1019A0000101A0910201B09103010AC010928101CE
:1019B0008091040190910501A0910601B091070169
:1019C0008093960290939702A0939802B093990205
:1019D0008091960290919702A0919802B0919902FD
:1019E00080939A0290939B02A0939C02B0939D02D5
:1019F0000E94211660939E0270939F028093A00222
:101A00009093A10285E992E00C94C31308954F923C
:101A10005F926F927F928F929F92AF92BF92CF927E
:101A2000DF92EF92FF92CF93C62F90916D01992391
:101A300089F0282F30E03093700120936F01682FD8
:101A400082E090E00E94F21A80916F0180938303FC
:101A500010926D01C63008F0E9C083E1C89FB00163
:101A60001124665F7F4F43E150E088E591E00E94DA
:101A7000D01A80915801813208F080E280931801D9
:101A80004090590150905A0160905B0170905C0148
:101A900020E030E040E05FE3C301B2010E94D01BD0
:101AA00087FD11C020E030E040E850E4C301B201FE
:101AB0000E942F1D181664F4412C512C40E8642E0E
:101AC00040E4742E05C0412C512C612C5FE3752E2F
:101AD0004092140150921501609216017092170104
:101AE00080915D01853008F084E080936B01C090A7
:101AF0005E01D0905F01E0906001F090610180E1B3
:101B0000C81683E0D806E104F10470F08AE0C81634
:101B10008DE3D806E104F10468F039E0C32E3DE31B
:101B2000D32EE12CF12C06C020E1C22E23E0D22ED0
:101B3000E12CF12CC0921001D0921101E09212011F
:101B4000F09213018090620190906301A090640173
:101B5000B090650120E030E040E85DE3C501B401EC
:101B60000E94D01B87FD11C020E030E040E75FE31A
:101B7000C501B4010E942F1D18166CF4812C912C04
:101B800080E7A82E8FE3B82E06C0812C912C90E818
:101B9000A92E9DE3B92E80920C0190920D01A09286
:101BA0000E01B0920F018091660190916701813220
:101BB000910514F080E290E097FF02C080E090E091
:101BC00090930B0180930A018091680190916901C3
:101BD0008132910514F080E290E097FF02C080E02E
:101BE00090E0909309018093080180916A018093AD
:101BF0001C01C701B6010E947D1CA30192010E9435
:101C0000D51B0E944E1C9B01AC01C501B401CF91B4
:101C1000FF90EF90DF90CF90BF90AF909F908F900C
:101C20007F906F905F904F900C943407CF91FF900E
:101C3000EF90DF90CF90BF90AF909F908F907F906C
:101C40006F905F904F900895CF92DF92EF92FF9246
:101C5000CF93DF93F82ED62FC42FC82ED12C80918E
:101C60006D018823A1F0D0927001C0926F016F2D99
:101C700082E090E00E94F21A60E083E090E00E942F
:101C8000F21A80916F018093830310926D01DC3111
:101C900009F454C1A0F4D83109F492C050F4D531FC
:101CA00009F441C0D63109F476C0D43109F089C1B4
:101CB00024C0DA3109F4D1C008F499C036C1D33355
:101CC00009F45EC148F4DE3109F44EC108F444C1A0
:101CD000D33209F44CC175C1DC3709F45AC1DD3780
:101CE00009F462C1DD3509F06CC1DF91CF91FF903D
:101CF000EF90DF90CF900C9495046C2F70E080E013
:101D000090E00E947D1C0E94341D20E030E040E8FD
:101D100051E40E948C1D0E944E1C613208F060E26A
:101D2000609318014EC1C63128F480E090E0A0E035
:101D3000BFE320C0CC3228F480E090E0A0E8BFE30D
:101D400019C0C23428F480E090E0A0ECBFE312C0D8
:101D5000C83528F480E090E0A0E0B0E40BC0CE36B7
:101D600028F480E090E0A0E4B0E404C080E090E0DB
:101D7000A0E8B0E48093140190931501A09316019C
:101D8000B0931701609110017091110180911201BF
:101D90009091130124C0CA3118F410926B0111C143
:101DA000C33310F481E003C0CC3420F482E080938C
:101DB0006B0107C1C53610F483E0F9CF84E0F7CF9B
:101DC000AFE8B0E0AC1BB1099D010E94441E6093D6
:101DD0001001709311018093120190931301DF9110
:101DE000CF91FF90EF90DF90CF900C947D076C2FF8
:101DF00070E080E090E00E947D1C20E030E04EEF3B
:101E000052E40E94D51B6B017C0120E030E040E8E9
:101E10005DE30E94D01B87FD11C020E030E040E769
:101E20005FE3C701B6010E942F1D18166CF4C12C88
:101E3000D12C80E7E82E8FE3F82E06C0C12CD12CE0
:101E400090E8E92E9DE3F92EC0920C01D0920D018D
:101E5000E0920E01F0920F0195CFC034D0F180E2F4
:101E600090E090930B0180930A018C2F90E0A0E00A
:101E7000B0E09C01AD012054310941095109ACE9A0
:101E8000BFEF0E942D1B2FE330E040E050E00E94A6
:101E9000001BDA01C9018C599F4FAF4FBF4FBC01E6
:101EA000990F880B990B0E947F1C0E94341D20E023
:101EB00030E040E851E40E948C1D0E94471C6132D2
:101EC000710514F060E270E07093090160930801FD
:101ED00078C02C2F30E0A4E6B0E00E94541B2FE322
:101EE00030E040E050E00E94001BB901330F880B46
:101EF000990B0E947F1C0E94341D20E030E040E8D6
:101F000051E40E948C1D0E94471C6132710514F03F
:101F100060E270E070930B0160930A0180E290E050
:101F200090930901809308014CC0C03420F081E0F7
:101F300080931C0146C010921C0143C0C03430F095
:101F400081E080937101109272013BC01092710187
:101F500081E08093720135C0DF91CF91FF90EF90C7
:101F6000DF90CF900C94F806D0912B0178CEC0343E
:101F700020F081E080937D0124C010927D0121C07A
:101F8000C03420F081E0809380011BC0109280015A
:101F900018C082E090E00E94E01A90E090937001F7
:101FA00080936F0160E005C01092700110926F0184
:101FB00061E083E090E00E94F21A80916F018093CB
:101FC0008303DF91CF91FF90EF90DF90CF90089542
:101FD000EF92FF920F931F93CF93DF9310918303A0
:101FE000113108F09BC38091810390918203DC0141
:101FF000ED91FC910084F185E02D0995892B09F480
:102000008DC38091810390918203DC01ED91FC915D
:102010000284F385E02D0995EC018B7F893F09F45B
:102020007DC380918B0390918C03009709F0B5C01C
:10203000C093860300918403802F0E94D2060E94E1
:10204000E406882361F0C7FD0AC000938603C093AD
:10205000870381E090E090938C0380938B03C09181
:1020600086038C2F0E94D206813F910509F461C03E
:1020700080F5803B910509F45FC068F480399105D3
:1020800009F45AC0803A910509F456C08038910588
:1020900009F0E3C051C0803D910509F44AC028F41D
:1020A000803C910509F445C0D8C0803E910509F4F3
:1020B00043C0803F910509F0D0C020E830E0309364
:1020C0008A03209389031092840320EF20939703BF
:1020D00039C0883F9105B9F040F4833F910549F13B
:1020E00058F1863F910579F0B8C08A3F910508F410
:1020F000B4C08D3F910538F09C012E5F310922302C
:10210000310508F0AAC09093940380939303109232
:102110009203109295031092960381E08093170426
:1021200010928C0310928B0310928A0310928903F1
:10213000F1C022E030E002C023E030E030938A03B7
:102140002093890320918B0330918C034091890364
:1021500050918A034150510924173507B8F09093E4
:10216000940380939303CF70CF5FC09392038091C9
:102170008703809395031092960310928C0310921C
:102180008B0310928A031092890328C02F5F3F4F60
:1021900030938C0320938B03C1C2C7FF47C09E01BD
:1021A00033272D3F310554F42A3F31056CF4273F86
:1021B0003105C1F0283F3105C9F506C0A9014E5FC0
:1021C00051094230510590F53093940320939303C5
:1021D00010929503109296031092920381E08093DF
:1021E000170498C020919703203FB9F59C012F5FF9
:1021F0003F4FFC01E35AFC4F47EF42AF80EF90E0C6
:1022000090939403809393032093950330939603C4
:102210001092920381E08093170410928C03109225
:102220008B0310928A03109289036BC0209186035E
:10223000FC01E35AFC4F203FD9F4C2AFE090890380
:10224000F0908A039701215031098217930708F40F
:102250005BC000918603003F69F410928C031092DA
:102260008B0310928A03109289031092840356C242
:10227000C1A7E4CF802F0E94D206EC019093940373
:10228000809393030E94E406882331F0802F8F709F
:102290008F5F8093920302C0109292038091870314
:1022A0008093950383E0E816F10419F48091880384
:1022B00001C080E08093960310928C0310928B03F0
:1022C00010928A031092890381E080931704C03B27
:1022D000D105A1F050F4C039D10581F0C03AD10543
:1022E00069F0C038D10569F409C0C03DD10531F0AD
:1022F000C03ED10519F0C03CD10519F40093840308
:1023000009C01092840306C0019690938C038093B9
:102310008B0304C2809193039091940380399105BB
:1023200029F480919603882309F41CC180919303BA
:10233000909194039C01205831092136310508F011
:1023400018C120919203121709F413C111111EC074
:1023500010C1813D910508F462C1803E910509F0EC
:102360006FC1E0916903F0916A03309779F0609151
:1023700096036F77A0E86A9FB001112480919503BE
:102380008F77682B705280919203099590919103F9
:10239000892F817090FFC2C1292F2E7F09F4BEC101
:1023A000A0919303B09194039D01205831092136E7
:1023B000310518F520919203121719F081E01111DF
:1023C00080E09695923031F0933041F0913009F0F1
:1023D000A5C106C0882309F4A1C102C081119EC114
:1023E0004091960360919503CD01DF91CF911F91AC
:1023F0000F91FF90EF900C94BD14FD01E05FF10987
:10240000E031F10508F08AC1E35CFF4F0C943E1EF9
:10241000BD0181E893E0DF91CF911F910F91FF9073
:10242000EF900C94B7060DE513E080919503909121
:1024300096038138910510F080E890E0EC01C35AD2
:10244000DC4F0C171D0709F469C18091810390913D
:102450008203DC01ED91FC910190F081E02DD80127
:10246000DA966C9109950F5F1F4FEBCFC0919503E2
:102470008091810390918203DC01ED91FC910190A8
:10248000F081E02D63EF0995CF776C2F70E080919C
:10249000810390918203DF91CF911F910F91FF9063
:1024A000EF900C94B614C0919603B0E8CB9FE00176
:1024B000112480919503C82B809181039091820310
:1024C000DC01ED91FC910190F081E02D62EF099526
:1024D0008091810390918203BE016F777727DC01A1
:1024E000ED91FC910190F081E02D0995809181039F
:1024F00090918203BE01660F672F661F770B71955F
:102500006F777727DC01ED91FC910190F081E02D50
:1025100022C0809195038770B0E18B9FC001112488
:10252000C0919603CF70C82B809181039091820354
:10253000DC01ED91FC910190F081E02D61EF0995B6
:102540008091810390918203DC01ED91FC910190D7
:10255000F081E02D6C2FDF91CF911F910F91FF90B3
:10256000EF90099480E890E0909394038093930314
:10257000DDCE813F9105C1F4E0916D03F0916E03D2
:102580000CC08B3F910508F0A8C0833F910509F06E
:1025900085C0E0917103F0917203309709F4F6CE93
:1025A000809195030995F2CE823F910508F060C0B5
:1025B000803B9105C1F4E0916303F091640308C08E
:1025C0008038910509F0E2CEE0915D03F0915E0361
:1025D000309709F4DBCE409196036091950380918A
:1025E00092030995D3CE813B910580F48039910502
:1025F00029F4E0915F03F0916003EACF803A9105FE
:10260000F9F6E0916103F0916203E2CF803D91051C
:1026100009F09FCEE0916703F091680308C0803C09
:10262000910509F0B3CEE0916503F0916603309710
:1026300009F4ACCE60919503809192030995A6CEE2
:10264000803F910509F0A2CEE0916B03F0916C03FD
:10265000309709F49BCE6091950370919603613891
:10266000710510F060E870E087E993E009958ECE7F
:102670008A3F910509F085CFE0917703F0917803C7
:1026800008C0883F910509F081CEE0917503F09173
:102690007603309709F47ACE099578CE833F910579
:1026A000A0F4E0916F03F0917003309709F46ECEBF
:1026B000809196038F77B0E88B9FC0011124209101
:1026C00095032F77822B099561CE863F9105C9F638
:1026D000E0917303F0917403DCCF8C3F910529F4F2
:1026E000E0917B03F0917C03D4CF8C3F910528F4DB
:1026F000E0917903F0917A03CCCF8E3F910529F4D4
:10270000E0917D03F0917E03C4CF8F3F910509F0E6
:102710003DCEE0917F03F0918003BBCFDF91CF915D
:102720001F910F91FF90EF900895EF92FF921F93EA
:10273000CF93DF93DC018C919C919E7F9C939C9125
:102740009D7F9C93182F117080FF16C05D96ED91B0
:10275000FC915E97309781F0ED01ABA1BCA114967E
:10276000ED90FC9015971596DC93CE9314970995F0
:10277000EBA1FCA1F582E482812FDF91CF911F9123
:10278000FF90EF9008950F931F93CF93DF93FC0179
:10279000A3A1B4A11097E9F1EC01158A168A178A52
:1027A000108E038CF48DE02D309779F1888181FDB6
:1027B0002CC014960D911C9115971596DC93CE9311
:1027C00014978881826088830995988180FB90F9AD
:1027D000988388818D7F8883EBA1FCA11583048376
:1027E0000E94211609811A812B813C810D831E8351
:1027F0002F833887DC01CB01801B910BA20BB30B1D
:1028000089879A87AB87BC8704C088818160888369
:10281000E7CFDF91CF911F910F910895CF92DF9273
:10282000EF92FF920F931F93CF93DF9300D000D0CE
:10283000CDB7DEB78C016A017B010E94C313C98248
:10284000DA82EB82FC82CD28CE28CF2829F089813C
:102850009A81AB81BC8105C0F80181819281A381FD
:10286000B481F80185839683A783B0870E942116DF
:10287000F80161877287838794870F900F900F907C
:102880000F90DF91CF911F910F91FF90EF90DF900C
:10289000CF900895CF93DF93EC010E9495138BA105
:1028A0009CA1009759F1EF8DF8A1A9A1BAA1309789
:1028B00099F4109749F4DC0111961C921E9213961C
:1028C0001C921E9212971AC090961C921E925F97AD
:1028D000FC01B183A08312C0109741F412A211A28F
:1028E000DC011396FC93EE93129708C0B2A3A1A348
:1028F000A9A1BAA19096FC93EE935F97DF91CF9137
:102900000895833081F028F4813099F08230A1F06D
:1029100008958730A9F08830B9F08430D1F48091DF
:1029200080008F7D03C0809180008F77809380002E
:10293000089584B58F7702C084B58F7D84BD0895D6
:102940008091B0008F7703C08091B0008F7D80931D
:10295000B00008959093300180932F01E9E6F0E0F4
:1029600080818C7F682B6083E89A0895DC01ED916B
:10297000FC910190F081E02D09940F931F93CF9368
:10298000DF932150203108F049C0803891050CF4C4
:1029900045C0813E91059CF5142F062FEC018091D6
:1029A0008103909182036C2F622BDC01ED91FC91ED
:1029B0000190F081E02D099580918103909182032F
:1029C000602F6F77DC01ED91FC910190F081E02D9B
:1029D0000995CE018F7E803C910501F180918103A4
:1029E00090918203612F6F77DC01ED91FC91019052
:1029F000F081E02DDF91CF911F910F9109949C01FF
:102A0000285F31092830310548F4BC0181E893E0A2
:102A1000DF91CF911F910F910C94B706DF91CF9169
:102A20001F910F910895CF93DF93282F30E0F90184
:102A3000E05CF94F8491F901E75DF94FD491F90118
:102A4000EE5EF94FC491CC2391F081110E94811464
:102A5000EC2FF0E0EE0FFF1FE85FF94FA591B49166
:102A6000EC91ED2381E090E021F480E002C080E071
:102A700090E0DF91CF9108951F93CF93DF93282F9C
:102A800030E0F901E05CF94F8491F901E75DF94F1D
:102A9000D491F901EE5EF94FC491CC23C1F0162F09
:102AA00081110E948114EC2FF0E0EE0FFF1FE25025
:102AB000FA4FA591B4919FB7F894111104C08C916D
:102AC000D095D82302C0EC91DE2BDC939FBFDF9121
:102AD000CF911F910895CF93DF9390E0FC01E75DC4
:102AE000F94F2491FC01EE5EF94F8491882361F146
:102AF00090E0880F991FFC01EC50FA4FC591D491DA
:102B0000FC01E250FA4FA591B491611109C09FB741
:102B1000F8948881209582238883EC912E230BC022
:102B2000623061F49FB7F8948881322F3095832307
:102B30008883EC912E2B2C939FBF06C08FB7F894FF
:102B4000E8812E2B28838FBFDF91CF9108951F93AB
:102B5000CF93DF93182FEB0161E00E946B15209754
:102B600011F460E004C0CF3FD10539F461E0812F5A
:102B7000DF91CF911F910C943C15E12FF0E0E05CC8
:102B8000F94FE491E330F9F048F4E130B9F0E23084
:102B9000A1F584B5806284BDC8BD34C0E730E9F0DA
:102BA000E83019F1E43049F580918000806280932B
:102BB0008000D0938B00C0938A0024C084B58068C5
:102BC00084BDC7BD1FC08091800080688093800055
:102BD000D0938900C093880015C08091B0008068B0
:102BE0008093B000C093B3000DC08091B0008062AC
:102BF0008093B000C093B40005C0C038D1050CF07C
:102C0000B5CFAFCFDF91CF911F910895883028F0D5
:102C10008E3010F08E5001C08FEF877080648093EB
:102C20007C0080917A00806480937A0080917A00A1
:102C300086FDFCCF809178002091790090E0922B66
:102C400008953FB7F89480911D0490911E04A091BF
:102C50001F04B091200426B5A89B05C02F3F19F092
:102C60000196A11DB11D3FBFBA2FA92F982F88270C
:102C7000820F911DA11DB11DBC01CD0142E0660F67
:102C8000771F881F991F4A95D1F708950F931F93B7
:102C9000CF93DF93EC01890188818E7F88838881BF
:102CA0008D7F888319861A861B861C861D821E824C
:102CB0001F82188619821A821B821C8218A21F8EFC
:102CC0001AA219A21CA21BA21D8A1E8A1F8A188E74
:102CD00049835A836B837C8389819A81AB81BC81D0
:102CE0008D839E83AF83B8870E94211669877A8778
:102CF0008B879C878FEF9FEFDC018D879E87AF8747
:102D0000B88B898B9A8BAB8BBC8B1A8F098F1C8EDF
:102D10001B8E1E8E1D8E8BA19CA18A5B9240F9F0AA
:102D20008AEB92E09CA38BA38091BA029091BB02A4
:102D3000892B39F4D093BB02C093BA0218A21F8E1C
:102D400008C0E091BC02F091BD02F8A3EF8FD2A3BE
:102D5000C1A31AA219A2D093BD02C093BC02DF91F5
:102D6000CF911F910F9108958F929F92AF92BF9232
:102D7000CF92DF92EF92FF926B017C010E942116AD
:102D80004B015C01C114D104E104F104F1F00E9493
:102D90002116DC01CB0188199909AA09BB09883ED3
:102DA0009340A105B10570F321E0C21AD108E108F2
:102DB000F10888EE880E83E0981EA11CB11CC11496
:102DC000D104E104F10419F7DDCFFF90EF90DF901B
:102DD000CF90BF90AF909F908F9008951F920F92C9
:102DE0000FB60F9211242F933F938F939F93AF931E
:102DF000BF938091190490911A04A0911B04B09183
:102E00001C043091180423E0230F2D3720F4019681
:102E1000A11DB11D05C026E8230F0296A11DB11DFD
:102E2000209318048093190490931A04A0931B0410
:102E3000B0931C0480911D0490911E04A0911F0466
:102E4000B09120040196A11DB11D80931D049093A3
:102E50001E04A0931F04B0932004BF91AF919F91D3
:102E60008F913F912F910F900FBE0F901F9018954B
:102E7000CF93DF93EC0160E083E01C161D06A4F401
:102E80000E943C1566E970E080E090E00E94B41674
:102E900061E083E00E943C1566E970E080E090E02C
:102EA0000E94B4162197E7CF0E943C1560E273E0C0
:102EB00080E090E0DF91CF910C94B41682E991E02C
:102EC0000E944A1487EB91E00E944A148CED91E035
:102ED0000E944A1481E092E00E944A1486E292E045
:102EE0000E944A148BE492E00E944A1480E792E028
:102EF0000E944A1485E992E00C944A14789484B5AF
:102F0000826084BD84B5816084BD85B5826085BDE5
:102F100085B5816085BD80916E00816080936E0073
:102F20001092810080918100826080938100809165
:102F30008100816080938100809180008160809316
:102F400080008091B10084608093B1008091B000D6
:102F500081608093B00080917A00846080937A00D1
:102F600080917A00826080937A0080917A008160FB
:102F700080937A0080917A00806880937A00109222
:102F8000C10080918100887F81608093810061E031
:102F900083E00E946B1561E084E00E946B1561E0A4
:102FA00087E00E946B1561E088E00E946B1561E08C
:102FB0008BE00E946B1562E082E00E946B1562E07C
:102FC00085E00E946B1562E086E00E946B1562E06E
:102FD00081E00E946B1560E080E00E946B1561E06B
:102FE00081E00E943C15CFE1D0E082E00E94131501
:102FF000892B09F03FC081E00E941315892BD1F580
:1030000064E670E080E090E00E94B416219769F7D2
:1030100081E080936E0180936D0110927001109297
:103020006F0161E083E090E00E94F21A80916F01ED
:103030008093830310921B010FE010E0C0E0D1E009
:10304000CD276C2F84E00E943C156C2F83E00E94FA
:103050003C156C2F89E00E943C156C2F8AE00E9481
:103060003C1564E670E080E090E00E94B4160150E8
:10307000110931F7CEE1D0E082E00E941315892BCF
:10308000F9F464E670E080E090E00E94B4162197C5
:1030900099F782E090E00E94381784E090E00E9467
:1030A000381782E090E00E94381760E083E00E94C9
:1030B0003C1560EA7FE080E090E00E94B416E9CF22
:1030C000CEE1D0E081E00E941315892BA9F564E6DA
:1030D00070E080E090E00E94B416219799F781E0BB
:1030E00090E00E94E01AC82F61E0811160E081E069
:1030F00090E00E94F21A81E090E0C11102C080E0ED
:1031000090E00196EC01CC0FDD1FCC0FDD1FF12C00
:1031100000E010E0EE24E394FE246F2D84E00E9492
:103120003C1564E670E080E090E00E94B4160F5F0A
:103130001F4FC017D10781F768EC70E080E090E086
:103140000E94B41681E090E00E94E01A91E08111A3
:1031500001C090E0909373010E94F80685E00E9400
:1031600013159C0181E02115310509F080E0809361
:10317000720191E0232B09F490E09093710186E0B5
:103180000E94131521E0892B09F420E020931C01F3
:1031900062E070E085E994E00E94AA1483E090E088
:1031A0000E94E01A882329F01092700110926F019A
:1031B00009C082E090E00E94E01A90E090937001D4
:1031C00080936F0190916F01E0918103F0918203F0
:1031D000A089B18982E08C93A485B5851C92A685CF
:1031E000B7858FE38C93108EA489B58986E08C9384
:1031F000A289B3898C9180618C93A289B3898C91C7
:1032000088608C93A289B3898C9180688C930288A2
:10321000F389E02D80818F7D8083909383031092CA
:1032200085031092840310928C0310928B031092EA
:103230008A03109289038FEF9FEF90938E03809300
:103240008D039093900380938F0310921704109234
:10325000940310929303109292031092950310928C
:1032600096031092910384E29EE09093640380930E
:10327000630387E09DE0909366038093650381EF8D
:1032800097E09093600380935F038BEB9BE09093B8
:1032900076038093750383EB9CE09093780380938F
:1032A000770382E098E090937C0380937B038AEA23
:1032B0009CE090937A038093790385E992E00E94E1
:1032C000C31380E792E00E94C3138CED91E00E944B
:1032D000C3138091BA029091BB029093BF02809376
:1032E000BE028091BE029091BF02009709F46CC0AB
:1032F000FC01208120FF61C0458556856785708966
:10330000452B462B472B19F40E94951356C00E945B
:103310002116E091BE02F091BF0281809280A380CD
:10332000B480C184D284E384F4840581168127812A
:103330003085DC01CB018C199D09AE09BF098017CE
:103340009107A207B307C8F185859685A785B0893F
:10335000181619061A061B065CF485859685A7853E
:10336000B0890197A109B10985879687A787B08B96
:1033700085899689A789B08D0196A11DB11D858B80
:10338000968BA78BB08F058116812781308581852B
:103390009285A385B485800F911FA21FB31F8187DB
:1033A0009287A387B48785829682A782B086018C94
:1033B000F28DE02D309709F00995E091BE02F09171
:1033C000BF0281A192A189CF0E945F0482CFCF93D7
:1033D000DF93A0ECB2E013961C921E92129748EE77
:1033E00053E060E070E014964D935D936D937C9391
:1033F000179781E491E011969C938E9385EC90E071
:103400001D969C938E931C9784EC90E01F969C9342
:103410008E931E9780EC90E051969C938E935097DC
:1034200081EC90E053969C938E93529782EC90E0BF
:1034300055969C938E93549786EC90E057969C9368
:103440008E93569759961C9259975A961C925A9752
:103450005B961C925B975C961C925C9784E690E06E
:103460009093910180939001EDE5F3E0B5A3A4A3BF
:1034700016A217A210A615A614A617A616A68FEFB9
:103480009FEF91AB80AB93AB82AB83E080939103D2
:1034900015AA17AA16AA10AE11AE1092170480E84A
:1034A000A7E9B3E0ED0119928A95E9F7118210823C
:1034B0001382128215821482178216821186108658
:1034C000138612861586148617861686118A108A28
:1034D000138A128A158A148A178A168A118E108EF8
:1034E000138E128E158E148E178E168E11A210A2A8
:1034F00013A212A2EAEBF2E011821082138212826E
:10350000158214822AE03CE040E153E060E070E084
:1035100085E992E00E9446162BE038E040EA5FE041
:1035200060E070E080E792E00E94461623E035E01C
:1035300040E050E0BA018BE492E00E9446162FE290
:1035400035E040E050E0BA0186E292E00E94461683
:1035500029EF34E040E050E0BA0181E092E00E94BF
:10356000461628EE3FE040EA50E060E070E08CED67
:1035700091E00E94461623E435E040E25EE460E01C
:1035800070E087EB91E00E9446162AE237E040E0C7
:1035900050E0BA0182E991E0DF91CF910C94461698
:1035A000DC01CB01FC01F999FECF06C0F2BDE1BD03
:1035B000F89A319600B40D9241505040B8F70895F2
:1035C000F999FECF92BD81BDF89A992780B50895EB
:1035D000DC01CB0103C02D910E94F31A41505040F1
:1035E000D0F70895262FF999FECF1FBA92BD81BD5D
:1035F00020BD0FB6F894FA9AF99A0FBE0196089575
:10360000052E97FB1EF400940E94171B57FD07D050
:103610000E94321B07FC03D04EF40C94171B5095EC
:103620004095309521953F4F4F4F5F4F08959095AE
:103630008095709561957F4F8F4F9F4F08950E94A1
:10364000541BA59F900DB49F900DA49F800D911DBC
:1036500011240895B7FF0C941F1B0E941F1B821B8F
:10366000930B0895A1E21A2EAA1BBB1BFD010DC0EE
:10367000AA1FBB1FEE1FFF1FA217B307E407F50722
:1036800020F0A21BB30BE40BF50B661F771F881FFE
:10369000991F1A9469F760957095809590959B0194
:1036A000AC01BD01CF010895A29FB001B39FC0013D
:1036B000A39F700D811D1124911DB29F700D811D5E
:1036C0001124911D08955058BB27AA270E947B1BE7
:1036D0000C94F51C0E94E71C38F00E94EE1C20F0B0
:1036E00039F49F3F19F426F40C94E41C0EF4E09591
:1036F000E7FB0C94DE1CE92F0E94061D58F3BA1755
:10370000620773078407950720F079F4A6F50C94F7
:10371000281D0EF4E0950B2EBA2FA02D0B01B90138
:1037200090010C01CA01A0011124FF27591B99F037
:10373000593F50F4503E68F11A16F040A22F232F43
:10374000342F4427585FF3CF469537952795A79593
:10375000F0405395C9F77EF41F16BA0B620B730B3A
:10376000840BBAF09150A1F0FF0FBB1F661F771FAB
:10377000881FC2F70EC0BA0F621F731F841F48F460
:10378000879577956795B795F7959E3F08F0B0CFE9
:103790009395880F08F09927EE0F979587950895D0
:1037A0000E94BA1C08F481E008950E94E91B0C9461
:1037B000F51C0E94EE1C58F00E94E71C40F029F412
:1037C0005F3F29F00C94DE1C51110C94291D0C94C0
:1037D000E41C0E94061D68F39923B1F3552391F36D
:1037E000951B550BBB27AA2762177307840738F070
:1037F0009F5F5F4F220F331F441FAA1FA9F335D0CD
:103800000E2E3AF0E0E832D091505040E695001C80
:10381000CAF72BD0FE2F29D0660F771F881FBB1F3A
:10382000261737074807AB07B0E809F0BB0B802D18
:10383000BF01FF2793585F4F3AF09E3F510578F044
:103840000C94DE1C0C94291D5F3FE4F3983ED4F3E6
:10385000869577956795B795F7959F5FC9F7880F18
:10386000911D9695879597F90895E1E0660F771F6A
:10387000881FBB1F621773078407BA0720F0621BFB
:10388000730B840BBA0BEE1F88F7E09508950E9426
:103890004E1C6894B1110C94291D08950E940E1DB0
:1038A00088F09F5798F0B92F9927B751B0F0E1F001
:1038B000660F771F881F991F1AF0BA95C9F714C0B1
:1038C000B13091F00E94281DB1E008950C94281D9C
:1038D000672F782F8827B85F39F0B93FCCF38695EA
:1038E00077956795B395D9F73EF490958095709547
:1038F00061957F4F8F4F9F4F0895E89409C097FBC4
:103900003EF490958095709561957F4F8F4F9F4FB6
:103910009923A9F0F92F96E9BB279395F6958795FA
:1039200077956795B795F111F8CFFAF4BB0F11F4BD
:1039300060FF1BC06F5F7F4F8F4F9F4F16C0882364
:1039400011F096E911C0772321F09EE8872F762F9A
:1039500005C0662371F096E8862F70E060E02AF0DB
:103960009A95660F771F881FDAF7880F96958795C7
:1039700097F90895990F0008550FAA0BE0E8FEEF9C
:1039800016161706E807F907C0F012161306E40723
:10399000F50798F0621B730B840B950B39F40A261C
:1039A00061F0232B242B252B21F408950A2609F4FA
:1039B000A140A6958FEF811D811D089597F99F67FE
:1039C00080E870E060E008959FEF80EC08950024A7
:1039D0000A941616170618060906089500240A9474
:1039E00012161306140605060895092E0394000CFA
:1039F00011F4882352F0BB0F40F4BF2B11F460FF89
:103A000004C06F5F7F4F8F4F9F4F089557FD9058B1
:103A1000440F551F59F05F3F71F04795880F97FB92
:103A2000991F61F09F3F79F087950895121613064C
:103A30001406551FF2CF4695F1DF08C0161617067B
:103A40001806991FF1CF86957105610508940895B0
:103A5000E894BB2766277727CB0197F908950E9442
:103A6000BA1C08F48FEF08950E94441D29ED3BE530
:103A70004EED5EE30C948C1D16F00C94F91D0C9425
:103A8000E41C68940C94DE1C0E940E1DA8F399237C
:103A9000C1F3AEF3DF93CF931F930F93FF92C92F20
:103AA000DD2788232AF02197660F771F881FDAF712
:103AB00020E030E040E85FEB9FE3883920F0803E73
:103AC00038F021968F770E94641BEAE9F0E004C089
:103AD0000E94641BE7ECF0E00E94071E8B01BE0110
:103AE000EC01FB2E6F5771097595771F880B990BA9
:103AF0000E947F1C28E132E741E35FE30E949F1DA3
:103B0000AF2D9801AE01FF900F911F91CF91DF91E2
:103B10000E947B1B0C94F51C0E949F1D0C94F51CAD
:103B20000E94E71C38F00E94EE1C20F0952311F053
:103B30000C94DE1C0C94E41C11240C94291D0E948E
:103B4000061D70F3959FC1F3950F50E0551F629FBE
:103B5000F001729FBB27F00DB11D639FAA27F00DE6
:103B6000B11DAA1F649F6627B00DA11D661F829F0D
:103B70002227B00DA11D621F739FB00DA11D621FF2
:103B8000839FA00D611D221F749F3327A00D611D0F
:103B9000231F849F600D211D822F762F6A2F1124F1
:103BA0009F5750409AF0F1F088234AF0EE0FFF1F24
:103BB000BB1F661F771F881F91505040A9F79E3F7B
:103BC000510580F00C94DE1C0C94291D5F3FE4F33A
:103BD000983ED4F3869577956795B795F795E795D1
:103BE0009F5FC1F7FE2B880F911D9695879597F9DA
:103BF00008959F3F31F0915020F487957795679510
:103C0000B795880F911D9695879597F90895DF933D
:103C1000CF931F930F93FF92EF92DF927B018C0162
:103C2000689406C0DA2EEF010E949F1DFE01E89401
:103C3000A5912591359145915591A6F3EF010E94EB
:103C40007B1BFE019701A801DA9469F7DF90EF90E2
:103C5000FF900F911F91CF91DF910895DB018F931A
:103C60009F930E941F1BBF91AF91A29F800D911D3A
:103C7000A39F900DB29F900D11240895EE0FFF1F8A
:103C80000590F491E02D09940E94541B332312F403
:103C90008A1B9B0B0C944E1E0E94541BB7FF089569
:103CA000821B930B089581E090E0F8940C94581EC9
:103CB00013E0CDE2D3E004C0FE010E943E1E219637
:0A3CC000CE32D107C9F7F894FFCF08
:103CCA00C4000000C4000000100010000000003F03
:103CDA00C40000000000803F100200FF01FFFFF651
:103CEA00FFF6FFF6FFF6FFF6FFF6FF1400F6FF58A1
:103CFA00035803F404F403F402F401F4000000008E
:103D0A0000F003590387033D04B8039603AA03008E
:00000001FF
